{
	"data": {
		"bytecode": {
			"linkReferences": {},
			"object": "60c0604052600a600255603c600355662386f26fc0ffff6104895534801562000026575f80fd5b50604051620032443803806200324483398181016040528101906200004c919062000163565b8080335f806101000a81548173ffffffffffffffffffffffffffffffffffffffff021916908373ffffffffffffffffffffffffffffffffffffffff1602179055508073ffffffffffffffffffffffffffffffffffffffff1660808173ffffffffffffffffffffffffffffffffffffffff16815250503373ffffffffffffffffffffffffffffffffffffffff1660a08173ffffffffffffffffffffffffffffffffffffffff168152505050505062000193565b5f80fd5b5f73ffffffffffffffffffffffffffffffffffffffff82169050919050565b5f6200012d8262000102565b9050919050565b6200013f8162000121565b81146200014a575f80fd5b50565b5f815190506200015d8162000134565b92915050565b5f602082840312156200017b576200017a620000fe565b5b5f6200018a848285016200014d565b91505092915050565b60805160a051613088620001bc5f395f6111f001525f818161142c0152611ed201526130885ff3fe608060405260043610610254575f3560e01c806397d54cf711610138578063c7e64a84116100b5578063f30e365811610079578063f30e36581461085e578063f3c1338714610868578063f9c7894e14610890578063fc0c546a146108ba578063fe29124c146108e4578063ffe7507f1461090e5761025b565b8063c7e64a841461077b578063c7f21f39146107a5578063e4f8a422146107cf578063eaa339b61461080b578063f2fde38b146108365761025b565b8063a78deefa116100fc578063a78deefa146106ab578063b6672790146106d5578063be9a655514610711578063c01a974514610727578063c17723f9146107515761025b565b806397d54cf7146105c75780639b8e9b5e146105f1578063a051078a1461061b578063a384e03014610645578063a447a5c61461066f5761025b565b80634e71d92d116101d15780637a50b787116101955780637a50b787146104a75780637b5d4c23146104e35780638703c0171461050d5780638cc08025146105375780638da5cb5b146105735780639561330a1461059d5761025b565b80634e71d92d146103fd578063544736e6146104135780635ae2afa41461043d5780635dfcc86a14610453578063672077381461047d5761025b565b80632f57fbf0116102185780632f57fbf01461033f578063333a00721461036957806344d9bc5f1461037f57806347ccca02146103a95780634b449cba146103d35761025b565b806301767cdb1461025f57806304e418241461028757806310c91973146102c3578063144fa6d7146102ed57806318916f9b146103155761025b565b3661025b57005b5f80fd5b34801561026a575f80fd5b50610285600480360381019061028091906121e4565b610938565b005b348015610292575f80fd5b506102ad60048036038101906102a89190612265565b610a6c565b6040516102ba91906122e2565b60405180910390f35b3480156102ce575f80fd5b506102d7610b55565b6040516102e49190612313565b60405180910390f35b3480156102f8575f80fd5b50610313600480360381019061030e9190612356565b610b5b565b005b348015610320575f80fd5b50610329610c83565b604051610336919061239b565b60405180910390f35b34801561034a575f80fd5b50610353610c9e565b60405161036091906122e2565b60405180910390f35b348015610374575f80fd5b5061037d610cc4565b005b34801561038a575f80fd5b50610393610dbe565b6040516103a09190612313565b60405180910390f35b3480156103b4575f80fd5b506103bd610dc7565b6040516103ca919061240f565b60405180910390f35b3480156103de575f80fd5b506103e7610ded565b6040516103f49190612313565b60405180910390f35b348015610408575f80fd5b50610411610df4565b005b34801561041e575f80fd5b506104276110a6565b604051610434919061239b565b60405180910390f35b348015610448575f80fd5b506104516110b2565b005b34801561045e575f80fd5b506104676112ce565b6040516104749190612313565b60405180910390f35b348015610488575f80fd5b506104916112d4565b60405161049e919061250a565b60405180910390f35b3480156104b2575f80fd5b506104cd60048036038101906104c89190612524565b611384565b6040516104da9190612313565b60405180910390f35b3480156104ee575f80fd5b506104f7611399565b6040516105049190612313565b60405180910390f35b348015610518575f80fd5b5061052161139e565b60405161052e9190612313565b60405180910390f35b348015610542575f80fd5b5061055d60048036038101906105589190612356565b6113bb565b60405161056a919061239b565b60405180910390f35b34801561057e575f80fd5b506105876113d9565b60405161059491906122e2565b60405180910390f35b3480156105a8575f80fd5b506105b1611400565b6040516105be9190612313565b60405180910390f35b3480156105d2575f80fd5b506105db611407565b6040516105e89190612313565b60405180910390f35b3480156105fc575f80fd5b50610605611429565b60405161061291906122e2565b60405180910390f35b348015610626575f80fd5b5061062f611450565b60405161063c9190612313565b60405180910390f35b348015610650575f80fd5b50610659611457565b6040516106669190612313565b60405180910390f35b34801561067a575f80fd5b5061069560048036038101906106909190612356565b61145d565b6040516106a2919061259d565b60405180910390f35b3480156106b6575f80fd5b506106bf6114b1565b6040516106cc919061239b565b60405180910390f35b3480156106e0575f80fd5b506106fb60048036038101906106f69190612265565b6114ca565b604051610708919061259d565b60405180910390f35b34801561071c575f80fd5b50610725611589565b005b348015610732575f80fd5b5061073b61162d565b6040516107489190612313565b60405180910390f35b34801561075c575f80fd5b50610765611634565b604051610772919061239b565b60405180910390f35b348015610786575f80fd5b5061078f611662565b60405161079c9190612313565b60405180910390f35b3480156107b0575f80fd5b506107b9611667565b6040516107c6919061239b565b60405180910390f35b3480156107da575f80fd5b506107f560048036038101906107f091906121e4565b6116fc565b6040516108029190612313565b60405180910390f35b348015610816575f80fd5b5061081f611710565b60405161082d9291906125b6565b60405180910390f35b348015610841575f80fd5b5061085c60048036038101906108579190612356565b61171d565b005b6108666117ec565b005b348015610873575f80fd5b5061088e60048036038101906108899190612356565b611945565b005b34801561089b575f80fd5b506108a4611a6f565b6040516108b1919061239b565b60405180910390f35b3480156108c5575f80fd5b506108ce611a8b565b6040516108db91906125fd565b60405180910390f35b3480156108ef575f80fd5b506108f8611ab0565b6040516109059190612313565b60405180910390f35b348015610919575f80fd5b50610922611ab5565b60405161092f91906126ad565b60405180910390f35b610940611a6f565b61097f576040517f08c379a000000000000000000000000000000000000000000000000000000000815260040161097690612721565b60405180910390fd5b5f61098b838333611b6c565b905060015f9054906101000a900473ffffffffffffffffffffffffffffffffffffffff1673ffffffffffffffffffffffffffffffffffffffff166323b872dd3330846040518463ffffffff1660e01b81526004016109eb9392919061273f565b6020604051808303815f875af1158015610a07573d5f803e3d5ffd5b505050506040513d601f19601f82011682018060405250810190610a2b919061279e565b505f5b83839050811015610a6657610a5b848483818110610a4f57610a4e6127c9565b5b90506060020133611c6e565b806001019050610a2e565b50505050565b5f8282601861ffff168260ff1610610ab9576040517f08c379a0000000000000000000000000000000000000000000000000000000008152600401610ab090612840565b60405180910390fd5b601861ffff168160ff1610610b03576040517f08c379a0000000000000000000000000000000000000000000000000000000008152600401610afa906128a8565b60405180910390fd5b6006610b0f86866114ca565b61ffff166102408110610b2557610b246127c9565b5b600202015f015f9054906101000a900473ffffffffffffffffffffffffffffffffffffffff169250505092915050565b60045481565b3373ffffffffffffffffffffffffffffffffffffffff165f8054906101000a900473ffffffffffffffffffffffffffffffffffffffff1673ffffffffffffffffffffffffffffffffffffffff1614610be8576040517f08c379a0000000000000000000000000000000000000000000000000000000008152600401610bdf90612910565b60405180910390fd5b5f73ffffffffffffffffffffffffffffffffffffffff1660015f9054906101000a900473ffffffffffffffffffffffffffffffffffffffff1673ffffffffffffffffffffffffffffffffffffffff1614610c40575f80fd5b8060015f6101000a81548173ffffffffffffffffffffffffffffffffffffffff021916908373ffffffffffffffffffffffffffffffffffffffff16021790555050565b5f8061048a54118015610c9957504261048a5411155b905090565b6104885f9054906101000a900473ffffffffffffffffffffffffffffffffffffffff1681565b3373ffffffffffffffffffffffffffffffffffffffff165f8054906101000a900473ffffffffffffffffffffffffffffffffffffffff1673ffffffffffffffffffffffffffffffffffffffff1614610d51576040517f08c379a0000000000000000000000000000000000000000000000000000000008152600401610d4890612910565b60405180910390fd5b5f805f6101000a81548173ffffffffffffffffffffffffffffffffffffffff021916908373ffffffffffffffffffffffffffffffffffffffff1602179055507f6e4ee811a17215345b89e3506064ff2d62f4feedff3566e9d09219cda7e8cadb60405160405180910390a1565b5f600554905090565b6104875f9054906101000a900473ffffffffffffffffffffffffffffffffffffffff1681565b61048a5481565b610dfc610c83565b610e3b576040517f08c379a0000000000000000000000000000000000000000000000000000000008152600401610e3290612978565b60405180910390fd5b610e43611667565b610e5057610e4f6110b2565b5b61048d5f3373ffffffffffffffffffffffffffffffffffffffff1673ffffffffffffffffffffffffffffffffffffffff1681526020019081526020015f205f9054906101000a900460ff1615610edb576040517f08c379a0000000000000000000000000000000000000000000000000000000008152600401610ed2906129e0565b60405180910390fd5b600161048d5f3373ffffffffffffffffffffffffffffffffffffffff1673ffffffffffffffffffffffffffffffffffffffff1681526020019081526020015f205f6101000a81548160ff0219169083151502179055505f6104865f3373ffffffffffffffffffffffffffffffffffffffff1673ffffffffffffffffffffffffffffffffffffffff1681526020019081526020015f205f9054906101000a900461ffff1661ffff1690505f8111610fc6576040517f08c379a0000000000000000000000000000000000000000000000000000000008152600401610fbd90612a48565b60405180910390fd5b610feb336004548361048b54610fdc9190612a93565b610fe69190612b01565b611f7d565b60015f9054906101000a900473ffffffffffffffffffffffffffffffffffffffff1673ffffffffffffffffffffffffffffffffffffffff1663a9059cbb5f6004548461048c5461103b9190612a93565b6110459190612b01565b6040518363ffffffff1660e01b8152600401611062929190612b31565b6020604051808303815f875af115801561107e573d5f803e3d5ffd5b505050506040513d601f19601f820116820180604052508101906110a2919061279e565b5050565b5f806005541415905090565b6110ba610c83565b6110f9576040517f08c379a00000000000000000000000000000000000000000000000000000000081526004016110f090612978565b60405180910390fd5b611101611667565b15611141576040517f08c379a000000000000000000000000000000000000000000000000000000000815260040161113890612ba2565b60405180910390fd5b6104875f9054906101000a900473ffffffffffffffffffffffffffffffffffffffff1673ffffffffffffffffffffffffffffffffffffffff16631a6952306104885f9054906101000a900473ffffffffffffffffffffffffffffffffffffffff166040518263ffffffff1660e01b81526004016111be91906122e2565b5f604051808303815f87803b1580156111d5575f80fd5b505af11580156111e7573d5f803e3d5ffd5b505050506112247f000000000000000000000000000000000000000000000000000000000000000060056104895461121f9190612b01565b611f7d565b4761048b8190555060015f9054906101000a900473ffffffffffffffffffffffffffffffffffffffff1673ffffffffffffffffffffffffffffffffffffffff166370a08231306040518263ffffffff1660e01b815260040161128691906122e2565b602060405180830381865afa1580156112a1573d5f803e3d5ffd5b505050506040513d601f19601f820116820180604052508101906112c59190612bea565b61048c81905550565b60035481565b6112dc6120fa565b600661024080602002604051908101604052809291905f905b8282101561137b578382600202016040518060400160405290815f82015f9054906101000a900473ffffffffffffffffffffffffffffffffffffffff1673ffffffffffffffffffffffffffffffffffffffff1673ffffffffffffffffffffffffffffffffffffffff168152602001600182015481525050815260200190600101906112f5565b50505050905090565b5f611390848484611b6c565b90509392505050565b600581565b6009600a6113ac9190612d44565b60016113b89190612a93565b81565b61048d602052805f5260405f205f915054906101000a900460ff1681565b5f805f9054906101000a900473ffffffffffffffffffffffffffffffffffffffff16905090565b61048b5481565b5f606460056104895461141a9190612a93565b6114249190612b01565b905090565b5f7f0000000000000000000000000000000000000000000000000000000000000000905090565b61048c5481565b60025481565b5f6104865f8373ffffffffffffffffffffffffffffffffffffffff1673ffffffffffffffffffffffffffffffffffffffff1681526020019081526020015f205f9054906101000a900461ffff169050919050565b5f806005541180156114c557504260055411155b905090565b5f8282601861ffff168260ff1610611517576040517f08c379a000000000000000000000000000000000000000000000000000000000815260040161150e90612840565b60405180910390fd5b601861ffff168160ff1610611561576040517f08c379a0000000000000000000000000000000000000000000000000000000008152600401611558906128a8565b60405180910390fd5b8460ff168460ff1660186115759190612d8e565b61157f9190612dca565b9250505092915050565b3373ffffffffffffffffffffffffffffffffffffffff165f8054906101000a900473ffffffffffffffffffffffffffffffffffffffff1673ffffffffffffffffffffffffffffffffffffffff1614611616576040517f08c379a000000000000000000000000000000000000000000000000000000000815260040161160d90612910565b60405180910390fd5b62015180426116259190612dff565b600581905550565b6104895481565b5f61163d6114b1565b611649575f905061165f565b5f61048a54148061165c575061048a5442105b90505b90565b603c81565b5f6104875f9054906101000a900473ffffffffffffffffffffffffffffffffffffffff1673ffffffffffffffffffffffffffffffffffffffff1663603159ab6040518163ffffffff1660e01b8152600401602060405180830381865afa1580156116d3573d5f803e3d5ffd5b505050506040513d601f19601f820116820180604052508101906116f7919061279e565b905090565b5f611708838333611b6c565b905092915050565b5f80601880915091509091565b3373ffffffffffffffffffffffffffffffffffffffff165f8054906101000a900473ffffffffffffffffffffffffffffffffffffffff1673ffffffffffffffffffffffffffffffffffffffff16146117aa576040517f08c379a00000000000000000000000000000000000000000000000000000000081526004016117a190612910565b60405180910390fd5b805f806101000a81548173ffffffffffffffffffffffffffffffffffffffff021916908373ffffffffffffffffffffffffffffffffffffffff16021790555050565b6117f4611407565b3411611835576040517f08c379a000000000000000000000000000000000000000000000000000000000815260040161182c90612e7c565b60405180910390fd5b5f73ffffffffffffffffffffffffffffffffffffffff166104885f9054906101000a900473ffffffffffffffffffffffffffffffffffffffff1673ffffffffffffffffffffffffffffffffffffffff16146118ba576118b96104885f9054906101000a900473ffffffffffffffffffffffffffffffffffffffff1661048954611f7d565b5b336104885f6101000a81548173ffffffffffffffffffffffffffffffffffffffff021916908373ffffffffffffffffffffffffffffffffffffffff16021790555034610489819055505f61048a540361192857620151804261191c9190612dff565b61048a81905550611943565b603c61048a5f82825461193b9190612dff565b925050819055505b565b3373ffffffffffffffffffffffffffffffffffffffff165f8054906101000a900473ffffffffffffffffffffffffffffffffffffffff1673ffffffffffffffffffffffffffffffffffffffff16146119d2576040517f08c379a00000000000000000000000000000000000000000000000000000000081526004016119c990612910565b60405180910390fd5b5f73ffffffffffffffffffffffffffffffffffffffff166104875f9054906101000a900473ffffffffffffffffffffffffffffffffffffffff1673ffffffffffffffffffffffffffffffffffffffff1614611a2b575f80fd5b806104875f6101000a81548173ffffffffffffffffffffffffffffffffffffffff021916908373ffffffffffffffffffffffffffffffffffffffff16021790555050565b5f80600554118015611a865750611a846114b1565b155b905090565b60015f9054906101000a900473ffffffffffffffffffffffffffffffffffffffff1681565b606481565b611abd612129565b5f5b601880611acc9190612d8e565b61ffff16811015611b68576006816102408110611aec57611aeb6127c9565b5b600202015f015f9054906101000a900473ffffffffffffffffffffffffffffffffffffffff1682826102408110611b2657611b256127c9565b5b602002019073ffffffffffffffffffffffffffffffffffffffff16908173ffffffffffffffffffffffffffffffffffffffff1681525050806001019050611abf565b5090565b5f805f5b85859050811015611c6257611c4a611bdb878784818110611b9457611b936127c9565b5b9050606002015f016020810190611bab9190612e9a565b888885818110611bbe57611bbd6127c9565b5b9050606002016020016020810190611bd69190612e9a565b61202a565b6040518060400160405290815f82015f9054906101000a900473ffffffffffffffffffffffffffffffffffffffff1673ffffffffffffffffffffffffffffffffffffffff1673ffffffffffffffffffffffffffffffffffffffff16815260200160018201548152505085612059565b82611c559190612dff565b9150806001019050611b70565b50809150509392505050565b5f611c9c835f016020810190611c849190612e9a565b846020016020810190611c979190612e9a565b6114ca565b90505f60068261ffff166102408110611cb857611cb76127c9565b5b6002020190505f815f015f9054906101000a900473ffffffffffffffffffffffffffffffffffffffff1690505f73ffffffffffffffffffffffffffffffffffffffff168173ffffffffffffffffffffffffffffffffffffffff1614611d8d576104865f8273ffffffffffffffffffffffffffffffffffffffff1673ffffffffffffffffffffffffffffffffffffffff1681526020019081526020015f205f81819054906101000a900461ffff16611d6e90612ec5565b91906101000a81548161ffff021916908361ffff160217905550611da3565b60045f8154611d9b90612eec565b919050819055505b6104865f3373ffffffffffffffffffffffffffffffffffffffff1673ffffffffffffffffffffffffffffffffffffffff1681526020019081526020015f205f81819054906101000a900461ffff16611dfa90612f33565b91906101000a81548161ffff021916908361ffff160217905550611e87826040518060400160405290815f82015f9054906101000a900473ffffffffffffffffffffffffffffffffffffffff1673ffffffffffffffffffffffffffffffffffffffff1673ffffffffffffffffffffffffffffffffffffffff16815260200160018201548152505085612059565b826001018190555033825f015f6101000a81548173ffffffffffffffffffffffffffffffffffffffff021916908373ffffffffffffffffffffffffffffffffffffffff1602179055507f000000000000000000000000000000000000000000000000000000000000000073ffffffffffffffffffffffffffffffffffffffff1663133c543d8487604001356040518363ffffffff1660e01b8152600401611f2f929190612f5c565b5f604051808303815f87803b158015611f46575f80fd5b505af1158015611f58573d5f803e3d5ffd5b5050505060035460055f828254611f6f9190612dff565b925050819055505050505050565b5f8273ffffffffffffffffffffffffffffffffffffffff1682604051611fa290612fb0565b5f6040518083038185875af1925050503d805f8114611fdc576040519150601f19603f3d011682016040523d82523d5f602084013e611fe1565b606091505b5050905080612025576040517f08c379a000000000000000000000000000000000000000000000000000000000815260040161201c90613034565b60405180910390fd5b505050565b5f600661203784846114ca565b61ffff16610240811061204d5761204c6127c9565b5b60020201905092915050565b5f8173ffffffffffffffffffffffffffffffffffffffff16835f015173ffffffffffffffffffffffffffffffffffffffff1603612098575f90506120f4565b5f8360200151036120c4576009600a6120b19190612d44565b60016120bd9190612a93565b90506120f4565b606460025484602001516120d89190612a93565b6120e29190612b01565b83602001516120f19190612dff565b90505b92915050565b604051806148000160405280610240905b61211361214d565b81526020019060019003908161210b5790505090565b60405180614800016040528061024090602082028036833780820191505090505090565b60405180604001604052805f73ffffffffffffffffffffffffffffffffffffffff1681526020015f81525090565b5f80fd5b5f80fd5b5f80fd5b5f80fd5b5f80fd5b5f8083601f8401126121a4576121a3612183565b5b8235905067ffffffffffffffff8111156121c1576121c0612187565b5b6020830191508360608202830111156121dd576121dc61218b565b5b9250929050565b5f80602083850312156121fa576121f961217b565b5b5f83013567ffffffffffffffff8111156122175761221661217f565b5b6122238582860161218f565b92509250509250929050565b5f60ff82169050919050565b6122448161222f565b811461224e575f80fd5b50565b5f8135905061225f8161223b565b92915050565b5f806040838503121561227b5761227a61217b565b5b5f61228885828601612251565b925050602061229985828601612251565b9150509250929050565b5f73ffffffffffffffffffffffffffffffffffffffff82169050919050565b5f6122cc826122a3565b9050919050565b6122dc816122c2565b82525050565b5f6020820190506122f55f8301846122d3565b92915050565b5f819050919050565b61230d816122fb565b82525050565b5f6020820190506123265f830184612304565b92915050565b612335816122c2565b811461233f575f80fd5b50565b5f813590506123508161232c565b92915050565b5f6020828403121561236b5761236a61217b565b5b5f61237884828501612342565b91505092915050565b5f8115159050919050565b61239581612381565b82525050565b5f6020820190506123ae5f83018461238c565b92915050565b5f819050919050565b5f6123d76123d26123cd846122a3565b6123b4565b6122a3565b9050919050565b5f6123e8826123bd565b9050919050565b5f6123f9826123de565b9050919050565b612409816123ef565b82525050565b5f6020820190506124225f830184612400565b92915050565b5f6102409050919050565b5f81905092915050565b5f819050919050565b61244f816122c2565b82525050565b61245e816122fb565b82525050565b604082015f8201516124785f850182612446565b50602082015161248b6020850182612455565b50505050565b5f61249c8383612464565b60408301905092915050565b5f602082019050919050565b6124bd81612428565b6124c78184612433565b92506124d28261243d565b805f5b838110156125025781516124e98782612491565b96506124f4836124a8565b9250506001810190506124d5565b505050505050565b5f6190008201905061251e5f8301846124b4565b92915050565b5f805f6040848603121561253b5761253a61217b565b5b5f84013567ffffffffffffffff8111156125585761255761217f565b5b6125648682870161218f565b9350935050602061257786828701612342565b9150509250925092565b5f61ffff82169050919050565b61259781612581565b82525050565b5f6020820190506125b05f83018461258e565b92915050565b5f6040820190506125c95f83018561258e565b6125d6602083018461258e565b9392505050565b5f6125e7826123de565b9050919050565b6125f7816125dd565b82525050565b5f6020820190506126105f8301846125ee565b92915050565b5f6102409050919050565b5f81905092915050565b5f819050919050565b5f61263f8383612446565b60208301905092915050565b5f602082019050919050565b61266081612616565b61266a8184612621565b92506126758261262b565b805f5b838110156126a557815161268c8782612634565b96506126978361264b565b925050600181019050612678565b505050505050565b5f614800820190506126c15f830184612657565b92915050565b5f82825260208201905092915050565b7f67616d65206e6f742073746172746564000000000000000000000000000000005f82015250565b5f61270b6010836126c7565b9150612716826126d7565b602082019050919050565b5f6020820190508181035f830152612738816126ff565b9050919050565b5f6060820190506127525f8301866122d3565b61275f60208301856122d3565b61276c6040830184612304565b949350505050565b61277d81612381565b8114612787575f80fd5b50565b5f8151905061279881612774565b92915050565b5f602082840312156127b3576127b261217b565b5b5f6127c08482850161278a565b91505092915050565b7f4e487b71000000000000000000000000000000000000000000000000000000005f52603260045260245ffd5b7f706f736974696f6e2078206f7574206f6620626f756e647300000000000000005f82015250565b5f61282a6018836126c7565b9150612835826127f6565b602082019050919050565b5f6020820190508181035f8301526128578161281e565b9050919050565b7f706f736974696f6e2079206f7574206f6620626f756e647300000000000000005f82015250565b5f6128926018836126c7565b915061289d8261285e565b602082019050919050565b5f6020820190508181035f8301526128bf81612886565b9050919050565b7f6f6e6c79206f776e6572000000000000000000000000000000000000000000005f82015250565b5f6128fa600a836126c7565b9150612905826128c6565b602082019050919050565b5f6020820190508181035f830152612927816128ee565b9050919050565b7f61756374696f6e207374696c6c20636f6e74696e7565000000000000000000005f82015250565b5f6129626016836126c7565b915061296d8261292e565b602082019050919050565b5f6020820190508181035f83015261298f81612956565b9050919050565b7f616c726561647920636c61696d656400000000000000000000000000000000005f82015250565b5f6129ca600f836126c7565b91506129d582612996565b602082019050919050565b5f6020820190508181035f8301526129f7816129be565b9050919050565b7f6163636f756e74207368617265206973203000000000000000000000000000005f82015250565b5f612a326012836126c7565b9150612a3d826129fe565b602082019050919050565b5f6020820190508181035f830152612a5f81612a26565b9050919050565b7f4e487b71000000000000000000000000000000000000000000000000000000005f52601160045260245ffd5b5f612a9d826122fb565b9150612aa8836122fb565b9250828202612ab6816122fb565b91508282048414831517612acd57612acc612a66565b5b5092915050565b7f4e487b71000000000000000000000000000000000000000000000000000000005f52601260045260245ffd5b5f612b0b826122fb565b9150612b16836122fb565b925082612b2657612b25612ad4565b5b828204905092915050565b5f604082019050612b445f8301856122d3565b612b516020830184612304565b9392505050565b7f6e667420616c726561647920636c61696d6564000000000000000000000000005f82015250565b5f612b8c6013836126c7565b9150612b9782612b58565b602082019050919050565b5f6020820190508181035f830152612bb981612b80565b9050919050565b612bc9816122fb565b8114612bd3575f80fd5b50565b5f81519050612be481612bc0565b92915050565b5f60208284031215612bff57612bfe61217b565b5b5f612c0c84828501612bd6565b91505092915050565b5f8160011c9050919050565b5f808291508390505b6001851115612c6a57808604811115612c4657612c45612a66565b5b6001851615612c555780820291505b8081029050612c6385612c15565b9450612c2a565b94509492505050565b5f82612c825760019050612d3d565b81612c8f575f9050612d3d565b8160018114612ca55760028114612caf57612cde565b6001915050612d3d565b60ff841115612cc157612cc0612a66565b5b8360020a915084821115612cd857612cd7612a66565b5b50612d3d565b5060208310610133831016604e8410600b8410161715612d135782820a905083811115612d0e57612d0d612a66565b5b612d3d565b612d208484846001612c21565b92509050818404811115612d3757612d36612a66565b5b81810290505b9392505050565b5f612d4e826122fb565b9150612d59836122fb565b9250612d867fffffffffffffffffffffffffffffffffffffffffffffffffffffffffffffffff8484612c73565b905092915050565b5f612d9882612581565b9150612da383612581565b9250828202612db181612581565b9150808214612dc357612dc2612a66565b5b5092915050565b5f612dd482612581565b9150612ddf83612581565b9250828201905061ffff811115612df957612df8612a66565b5b92915050565b5f612e09826122fb565b9150612e14836122fb565b9250828201905080821115612e2c57612e2b612a66565b5b92915050565b7f62696420697320746f6f206c6f770000000000000000000000000000000000005f82015250565b5f612e66600e836126c7565b9150612e7182612e32565b602082019050919050565b5f6020820190508181035f830152612e9381612e5a565b9050919050565b5f60208284031215612eaf57612eae61217b565b5b5f612ebc84828501612251565b91505092915050565b5f612ecf82612581565b91505f8203612ee157612ee0612a66565b5b600182039050919050565b5f612ef6826122fb565b91507fffffffffffffffffffffffffffffffffffffffffffffffffffffffffffffffff8203612f2857612f27612a66565b5b600182019050919050565b5f612f3d82612581565b915061ffff8203612f5157612f50612a66565b5b600182019050919050565b5f604082019050612f6f5f83018561258e565b612f7c6020830184612304565b9392505050565b5f81905092915050565b50565b5f612f9b5f83612f83565b9150612fa682612f8d565b5f82019050919050565b5f612fba82612f90565b9150819050919050565b7f73656e7420666565206572726f723a206574686572206973206e6f742073656e5f8201527f7400000000000000000000000000000000000000000000000000000000000000602082015250565b5f61301e6021836126c7565b915061302982612fc4565b604082019050919050565b5f6020820190508181035f83015261304b81613012565b905091905056fea264697066735822122061bafedf21d986feba25636890dc1b0924234c38509c3336bfb1854cda341acb64736f6c63430008180033",
			"opcodes": "PUSH1 0xC0 PUSH1 0x40 MSTORE PUSH1 0xA PUSH1 0x2 SSTORE PUSH1 0x3C PUSH1 0x3 SSTORE PUSH7 0x2386F26FC0FFFF PUSH2 0x489 SSTORE CALLVALUE DUP1 ISZERO PUSH3 0x26 JUMPI PUSH0 DUP1 REVERT JUMPDEST POP PUSH1 0x40 MLOAD PUSH3 0x3244 CODESIZE SUB DUP1 PUSH3 0x3244 DUP4 CODECOPY DUP2 DUP2 ADD PUSH1 0x40 MSTORE DUP2 ADD SWAP1 PUSH3 0x4C SWAP2 SWAP1 PUSH3 0x163 JUMP JUMPDEST DUP1 DUP1 CALLER PUSH0 DUP1 PUSH2 0x100 EXP DUP2 SLOAD DUP2 PUSH20 0xFFFFFFFFFFFFFFFFFFFFFFFFFFFFFFFFFFFFFFFF MUL NOT AND SWAP1 DUP4 PUSH20 0xFFFFFFFFFFFFFFFFFFFFFFFFFFFFFFFFFFFFFFFF AND MUL OR SWAP1 SSTORE POP DUP1 PUSH20 0xFFFFFFFFFFFFFFFFFFFFFFFFFFFFFFFFFFFFFFFF AND PUSH1 0x80 DUP2 PUSH20 0xFFFFFFFFFFFFFFFFFFFFFFFFFFFFFFFFFFFFFFFF AND DUP2 MSTORE POP POP CALLER PUSH20 0xFFFFFFFFFFFFFFFFFFFFFFFFFFFFFFFFFFFFFFFF AND PUSH1 0xA0 DUP2 PUSH20 0xFFFFFFFFFFFFFFFFFFFFFFFFFFFFFFFFFFFFFFFF AND DUP2 MSTORE POP POP POP POP POP PUSH3 0x193 JUMP JUMPDEST PUSH0 DUP1 REVERT JUMPDEST PUSH0 PUSH20 0xFFFFFFFFFFFFFFFFFFFFFFFFFFFFFFFFFFFFFFFF DUP3 AND SWAP1 POP SWAP2 SWAP1 POP JUMP JUMPDEST PUSH0 PUSH3 0x12D DUP3 PUSH3 0x102 JUMP JUMPDEST SWAP1 POP SWAP2 SWAP1 POP JUMP JUMPDEST PUSH3 0x13F DUP2 PUSH3 0x121 JUMP JUMPDEST DUP2 EQ PUSH3 0x14A JUMPI PUSH0 DUP1 REVERT JUMPDEST POP JUMP JUMPDEST PUSH0 DUP2 MLOAD SWAP1 POP PUSH3 0x15D DUP2 PUSH3 0x134 JUMP JUMPDEST SWAP3 SWAP2 POP POP JUMP JUMPDEST PUSH0 PUSH1 0x20 DUP3 DUP5 SUB SLT ISZERO PUSH3 0x17B JUMPI PUSH3 0x17A PUSH3 0xFE JUMP JUMPDEST JUMPDEST PUSH0 PUSH3 0x18A DUP5 DUP3 DUP6 ADD PUSH3 0x14D JUMP JUMPDEST SWAP2 POP POP SWAP3 SWAP2 POP POP JUMP JUMPDEST PUSH1 0x80 MLOAD PUSH1 0xA0 MLOAD PUSH2 0x3088 PUSH3 0x1BC PUSH0 CODECOPY PUSH0 PUSH2 0x11F0 ADD MSTORE PUSH0 DUP2 DUP2 PUSH2 0x142C ADD MSTORE PUSH2 0x1ED2 ADD MSTORE PUSH2 0x3088 PUSH0 RETURN INVALID PUSH1 0x80 PUSH1 0x40 MSTORE PUSH1 0x4 CALLDATASIZE LT PUSH2 0x254 JUMPI PUSH0 CALLDATALOAD PUSH1 0xE0 SHR DUP1 PUSH4 0x97D54CF7 GT PUSH2 0x138 JUMPI DUP1 PUSH4 0xC7E64A84 GT PUSH2 0xB5 JUMPI DUP1 PUSH4 0xF30E3658 GT PUSH2 0x79 JUMPI DUP1 PUSH4 0xF30E3658 EQ PUSH2 0x85E JUMPI DUP1 PUSH4 0xF3C13387 EQ PUSH2 0x868 JUMPI DUP1 PUSH4 0xF9C7894E EQ PUSH2 0x890 JUMPI DUP1 PUSH4 0xFC0C546A EQ PUSH2 0x8BA JUMPI DUP1 PUSH4 0xFE29124C EQ PUSH2 0x8E4 JUMPI DUP1 PUSH4 0xFFE7507F EQ PUSH2 0x90E JUMPI PUSH2 0x25B JUMP JUMPDEST DUP1 PUSH4 0xC7E64A84 EQ PUSH2 0x77B JUMPI DUP1 PUSH4 0xC7F21F39 EQ PUSH2 0x7A5 JUMPI DUP1 PUSH4 0xE4F8A422 EQ PUSH2 0x7CF JUMPI DUP1 PUSH4 0xEAA339B6 EQ PUSH2 0x80B JUMPI DUP1 PUSH4 0xF2FDE38B EQ PUSH2 0x836 JUMPI PUSH2 0x25B JUMP JUMPDEST DUP1 PUSH4 0xA78DEEFA GT PUSH2 0xFC JUMPI DUP1 PUSH4 0xA78DEEFA EQ PUSH2 0x6AB JUMPI DUP1 PUSH4 0xB6672790 EQ PUSH2 0x6D5 JUMPI DUP1 PUSH4 0xBE9A6555 EQ PUSH2 0x711 JUMPI DUP1 PUSH4 0xC01A9745 EQ PUSH2 0x727 JUMPI DUP1 PUSH4 0xC17723F9 EQ PUSH2 0x751 JUMPI PUSH2 0x25B JUMP JUMPDEST DUP1 PUSH4 0x97D54CF7 EQ PUSH2 0x5C7 JUMPI DUP1 PUSH4 0x9B8E9B5E EQ PUSH2 0x5F1 JUMPI DUP1 PUSH4 0xA051078A EQ PUSH2 0x61B JUMPI DUP1 PUSH4 0xA384E030 EQ PUSH2 0x645 JUMPI DUP1 PUSH4 0xA447A5C6 EQ PUSH2 0x66F JUMPI PUSH2 0x25B JUMP JUMPDEST DUP1 PUSH4 0x4E71D92D GT PUSH2 0x1D1 JUMPI DUP1 PUSH4 0x7A50B787 GT PUSH2 0x195 JUMPI DUP1 PUSH4 0x7A50B787 EQ PUSH2 0x4A7 JUMPI DUP1 PUSH4 0x7B5D4C23 EQ PUSH2 0x4E3 JUMPI DUP1 PUSH4 0x8703C017 EQ PUSH2 0x50D JUMPI DUP1 PUSH4 0x8CC08025 EQ PUSH2 0x537 JUMPI DUP1 PUSH4 0x8DA5CB5B EQ PUSH2 0x573 JUMPI DUP1 PUSH4 0x9561330A EQ PUSH2 0x59D JUMPI PUSH2 0x25B JUMP JUMPDEST DUP1 PUSH4 0x4E71D92D EQ PUSH2 0x3FD JUMPI DUP1 PUSH4 0x544736E6 EQ PUSH2 0x413 JUMPI DUP1 PUSH4 0x5AE2AFA4 EQ PUSH2 0x43D JUMPI DUP1 PUSH4 0x5DFCC86A EQ PUSH2 0x453 JUMPI DUP1 PUSH4 0x67207738 EQ PUSH2 0x47D JUMPI PUSH2 0x25B JUMP JUMPDEST DUP1 PUSH4 0x2F57FBF0 GT PUSH2 0x218 JUMPI DUP1 PUSH4 0x2F57FBF0 EQ PUSH2 0x33F JUMPI DUP1 PUSH4 0x333A0072 EQ PUSH2 0x369 JUMPI DUP1 PUSH4 0x44D9BC5F EQ PUSH2 0x37F JUMPI DUP1 PUSH4 0x47CCCA02 EQ PUSH2 0x3A9 JUMPI DUP1 PUSH4 0x4B449CBA EQ PUSH2 0x3D3 JUMPI PUSH2 0x25B JUMP JUMPDEST DUP1 PUSH4 0x1767CDB EQ PUSH2 0x25F JUMPI DUP1 PUSH4 0x4E41824 EQ PUSH2 0x287 JUMPI DUP1 PUSH4 0x10C91973 EQ PUSH2 0x2C3 JUMPI DUP1 PUSH4 0x144FA6D7 EQ PUSH2 0x2ED JUMPI DUP1 PUSH4 0x18916F9B EQ PUSH2 0x315 JUMPI PUSH2 0x25B JUMP JUMPDEST CALLDATASIZE PUSH2 0x25B JUMPI STOP JUMPDEST PUSH0 DUP1 REVERT JUMPDEST CALLVALUE DUP1 ISZERO PUSH2 0x26A JUMPI PUSH0 DUP1 REVERT JUMPDEST POP PUSH2 0x285 PUSH1 0x4 DUP1 CALLDATASIZE SUB DUP2 ADD SWAP1 PUSH2 0x280 SWAP2 SWAP1 PUSH2 0x21E4 JUMP JUMPDEST PUSH2 0x938 JUMP JUMPDEST STOP JUMPDEST CALLVALUE DUP1 ISZERO PUSH2 0x292 JUMPI PUSH0 DUP1 REVERT JUMPDEST POP PUSH2 0x2AD PUSH1 0x4 DUP1 CALLDATASIZE SUB DUP2 ADD SWAP1 PUSH2 0x2A8 SWAP2 SWAP1 PUSH2 0x2265 JUMP JUMPDEST PUSH2 0xA6C JUMP JUMPDEST PUSH1 0x40 MLOAD PUSH2 0x2BA SWAP2 SWAP1 PUSH2 0x22E2 JUMP JUMPDEST PUSH1 0x40 MLOAD DUP1 SWAP2 SUB SWAP1 RETURN JUMPDEST CALLVALUE DUP1 ISZERO PUSH2 0x2CE JUMPI PUSH0 DUP1 REVERT JUMPDEST POP PUSH2 0x2D7 PUSH2 0xB55 JUMP JUMPDEST PUSH1 0x40 MLOAD PUSH2 0x2E4 SWAP2 SWAP1 PUSH2 0x2313 JUMP JUMPDEST PUSH1 0x40 MLOAD DUP1 SWAP2 SUB SWAP1 RETURN JUMPDEST CALLVALUE DUP1 ISZERO PUSH2 0x2F8 JUMPI PUSH0 DUP1 REVERT JUMPDEST POP PUSH2 0x313 PUSH1 0x4 DUP1 CALLDATASIZE SUB DUP2 ADD SWAP1 PUSH2 0x30E SWAP2 SWAP1 PUSH2 0x2356 JUMP JUMPDEST PUSH2 0xB5B JUMP JUMPDEST STOP JUMPDEST CALLVALUE DUP1 ISZERO PUSH2 0x320 JUMPI PUSH0 DUP1 REVERT JUMPDEST POP PUSH2 0x329 PUSH2 0xC83 JUMP JUMPDEST PUSH1 0x40 MLOAD PUSH2 0x336 SWAP2 SWAP1 PUSH2 0x239B JUMP JUMPDEST PUSH1 0x40 MLOAD DUP1 SWAP2 SUB SWAP1 RETURN JUMPDEST CALLVALUE DUP1 ISZERO PUSH2 0x34A JUMPI PUSH0 DUP1 REVERT JUMPDEST POP PUSH2 0x353 PUSH2 0xC9E JUMP JUMPDEST PUSH1 0x40 MLOAD PUSH2 0x360 SWAP2 SWAP1 PUSH2 0x22E2 JUMP JUMPDEST PUSH1 0x40 MLOAD DUP1 SWAP2 SUB SWAP1 RETURN JUMPDEST CALLVALUE DUP1 ISZERO PUSH2 0x374 JUMPI PUSH0 DUP1 REVERT JUMPDEST POP PUSH2 0x37D PUSH2 0xCC4 JUMP JUMPDEST STOP JUMPDEST CALLVALUE DUP1 ISZERO PUSH2 0x38A JUMPI PUSH0 DUP1 REVERT JUMPDEST POP PUSH2 0x393 PUSH2 0xDBE JUMP JUMPDEST PUSH1 0x40 MLOAD PUSH2 0x3A0 SWAP2 SWAP1 PUSH2 0x2313 JUMP JUMPDEST PUSH1 0x40 MLOAD DUP1 SWAP2 SUB SWAP1 RETURN JUMPDEST CALLVALUE DUP1 ISZERO PUSH2 0x3B4 JUMPI PUSH0 DUP1 REVERT JUMPDEST POP PUSH2 0x3BD PUSH2 0xDC7 JUMP JUMPDEST PUSH1 0x40 MLOAD PUSH2 0x3CA SWAP2 SWAP1 PUSH2 0x240F JUMP JUMPDEST PUSH1 0x40 MLOAD DUP1 SWAP2 SUB SWAP1 RETURN JUMPDEST CALLVALUE DUP1 ISZERO PUSH2 0x3DE JUMPI PUSH0 DUP1 REVERT JUMPDEST POP PUSH2 0x3E7 PUSH2 0xDED JUMP JUMPDEST PUSH1 0x40 MLOAD PUSH2 0x3F4 SWAP2 SWAP1 PUSH2 0x2313 JUMP JUMPDEST PUSH1 0x40 MLOAD DUP1 SWAP2 SUB SWAP1 RETURN JUMPDEST CALLVALUE DUP1 ISZERO PUSH2 0x408 JUMPI PUSH0 DUP1 REVERT JUMPDEST POP PUSH2 0x411 PUSH2 0xDF4 JUMP JUMPDEST STOP JUMPDEST CALLVALUE DUP1 ISZERO PUSH2 0x41E JUMPI PUSH0 DUP1 REVERT JUMPDEST POP PUSH2 0x427 PUSH2 0x10A6 JUMP JUMPDEST PUSH1 0x40 MLOAD PUSH2 0x434 SWAP2 SWAP1 PUSH2 0x239B JUMP JUMPDEST PUSH1 0x40 MLOAD DUP1 SWAP2 SUB SWAP1 RETURN JUMPDEST CALLVALUE DUP1 ISZERO PUSH2 0x448 JUMPI PUSH0 DUP1 REVERT JUMPDEST POP PUSH2 0x451 PUSH2 0x10B2 JUMP JUMPDEST STOP JUMPDEST CALLVALUE DUP1 ISZERO PUSH2 0x45E JUMPI PUSH0 DUP1 REVERT JUMPDEST POP PUSH2 0x467 PUSH2 0x12CE JUMP JUMPDEST PUSH1 0x40 MLOAD PUSH2 0x474 SWAP2 SWAP1 PUSH2 0x2313 JUMP JUMPDEST PUSH1 0x40 MLOAD DUP1 SWAP2 SUB SWAP1 RETURN JUMPDEST CALLVALUE DUP1 ISZERO PUSH2 0x488 JUMPI PUSH0 DUP1 REVERT JUMPDEST POP PUSH2 0x491 PUSH2 0x12D4 JUMP JUMPDEST PUSH1 0x40 MLOAD PUSH2 0x49E SWAP2 SWAP1 PUSH2 0x250A JUMP JUMPDEST PUSH1 0x40 MLOAD DUP1 SWAP2 SUB SWAP1 RETURN JUMPDEST CALLVALUE DUP1 ISZERO PUSH2 0x4B2 JUMPI PUSH0 DUP1 REVERT JUMPDEST POP PUSH2 0x4CD PUSH1 0x4 DUP1 CALLDATASIZE SUB DUP2 ADD SWAP1 PUSH2 0x4C8 SWAP2 SWAP1 PUSH2 0x2524 JUMP JUMPDEST PUSH2 0x1384 JUMP JUMPDEST PUSH1 0x40 MLOAD PUSH2 0x4DA SWAP2 SWAP1 PUSH2 0x2313 JUMP JUMPDEST PUSH1 0x40 MLOAD DUP1 SWAP2 SUB SWAP1 RETURN JUMPDEST CALLVALUE DUP1 ISZERO PUSH2 0x4EE JUMPI PUSH0 DUP1 REVERT JUMPDEST POP PUSH2 0x4F7 PUSH2 0x1399 JUMP JUMPDEST PUSH1 0x40 MLOAD PUSH2 0x504 SWAP2 SWAP1 PUSH2 0x2313 JUMP JUMPDEST PUSH1 0x40 MLOAD DUP1 SWAP2 SUB SWAP1 RETURN JUMPDEST CALLVALUE DUP1 ISZERO PUSH2 0x518 JUMPI PUSH0 DUP1 REVERT JUMPDEST POP PUSH2 0x521 PUSH2 0x139E JUMP JUMPDEST PUSH1 0x40 MLOAD PUSH2 0x52E SWAP2 SWAP1 PUSH2 0x2313 JUMP JUMPDEST PUSH1 0x40 MLOAD DUP1 SWAP2 SUB SWAP1 RETURN JUMPDEST CALLVALUE DUP1 ISZERO PUSH2 0x542 JUMPI PUSH0 DUP1 REVERT JUMPDEST POP PUSH2 0x55D PUSH1 0x4 DUP1 CALLDATASIZE SUB DUP2 ADD SWAP1 PUSH2 0x558 SWAP2 SWAP1 PUSH2 0x2356 JUMP JUMPDEST PUSH2 0x13BB JUMP JUMPDEST PUSH1 0x40 MLOAD PUSH2 0x56A SWAP2 SWAP1 PUSH2 0x239B JUMP JUMPDEST PUSH1 0x40 MLOAD DUP1 SWAP2 SUB SWAP1 RETURN JUMPDEST CALLVALUE DUP1 ISZERO PUSH2 0x57E JUMPI PUSH0 DUP1 REVERT JUMPDEST POP PUSH2 0x587 PUSH2 0x13D9 JUMP JUMPDEST PUSH1 0x40 MLOAD PUSH2 0x594 SWAP2 SWAP1 PUSH2 0x22E2 JUMP JUMPDEST PUSH1 0x40 MLOAD DUP1 SWAP2 SUB SWAP1 RETURN JUMPDEST CALLVALUE DUP1 ISZERO PUSH2 0x5A8 JUMPI PUSH0 DUP1 REVERT JUMPDEST POP PUSH2 0x5B1 PUSH2 0x1400 JUMP JUMPDEST PUSH1 0x40 MLOAD PUSH2 0x5BE SWAP2 SWAP1 PUSH2 0x2313 JUMP JUMPDEST PUSH1 0x40 MLOAD DUP1 SWAP2 SUB SWAP1 RETURN JUMPDEST CALLVALUE DUP1 ISZERO PUSH2 0x5D2 JUMPI PUSH0 DUP1 REVERT JUMPDEST POP PUSH2 0x5DB PUSH2 0x1407 JUMP JUMPDEST PUSH1 0x40 MLOAD PUSH2 0x5E8 SWAP2 SWAP1 PUSH2 0x2313 JUMP JUMPDEST PUSH1 0x40 MLOAD DUP1 SWAP2 SUB SWAP1 RETURN JUMPDEST CALLVALUE DUP1 ISZERO PUSH2 0x5FC JUMPI PUSH0 DUP1 REVERT JUMPDEST POP PUSH2 0x605 PUSH2 0x1429 JUMP JUMPDEST PUSH1 0x40 MLOAD PUSH2 0x612 SWAP2 SWAP1 PUSH2 0x22E2 JUMP JUMPDEST PUSH1 0x40 MLOAD DUP1 SWAP2 SUB SWAP1 RETURN JUMPDEST CALLVALUE DUP1 ISZERO PUSH2 0x626 JUMPI PUSH0 DUP1 REVERT JUMPDEST POP PUSH2 0x62F PUSH2 0x1450 JUMP JUMPDEST PUSH1 0x40 MLOAD PUSH2 0x63C SWAP2 SWAP1 PUSH2 0x2313 JUMP JUMPDEST PUSH1 0x40 MLOAD DUP1 SWAP2 SUB SWAP1 RETURN JUMPDEST CALLVALUE DUP1 ISZERO PUSH2 0x650 JUMPI PUSH0 DUP1 REVERT JUMPDEST POP PUSH2 0x659 PUSH2 0x1457 JUMP JUMPDEST PUSH1 0x40 MLOAD PUSH2 0x666 SWAP2 SWAP1 PUSH2 0x2313 JUMP JUMPDEST PUSH1 0x40 MLOAD DUP1 SWAP2 SUB SWAP1 RETURN JUMPDEST CALLVALUE DUP1 ISZERO PUSH2 0x67A JUMPI PUSH0 DUP1 REVERT JUMPDEST POP PUSH2 0x695 PUSH1 0x4 DUP1 CALLDATASIZE SUB DUP2 ADD SWAP1 PUSH2 0x690 SWAP2 SWAP1 PUSH2 0x2356 JUMP JUMPDEST PUSH2 0x145D JUMP JUMPDEST PUSH1 0x40 MLOAD PUSH2 0x6A2 SWAP2 SWAP1 PUSH2 0x259D JUMP JUMPDEST PUSH1 0x40 MLOAD DUP1 SWAP2 SUB SWAP1 RETURN JUMPDEST CALLVALUE DUP1 ISZERO PUSH2 0x6B6 JUMPI PUSH0 DUP1 REVERT JUMPDEST POP PUSH2 0x6BF PUSH2 0x14B1 JUMP JUMPDEST PUSH1 0x40 MLOAD PUSH2 0x6CC SWAP2 SWAP1 PUSH2 0x239B JUMP JUMPDEST PUSH1 0x40 MLOAD DUP1 SWAP2 SUB SWAP1 RETURN JUMPDEST CALLVALUE DUP1 ISZERO PUSH2 0x6E0 JUMPI PUSH0 DUP1 REVERT JUMPDEST POP PUSH2 0x6FB PUSH1 0x4 DUP1 CALLDATASIZE SUB DUP2 ADD SWAP1 PUSH2 0x6F6 SWAP2 SWAP1 PUSH2 0x2265 JUMP JUMPDEST PUSH2 0x14CA JUMP JUMPDEST PUSH1 0x40 MLOAD PUSH2 0x708 SWAP2 SWAP1 PUSH2 0x259D JUMP JUMPDEST PUSH1 0x40 MLOAD DUP1 SWAP2 SUB SWAP1 RETURN JUMPDEST CALLVALUE DUP1 ISZERO PUSH2 0x71C JUMPI PUSH0 DUP1 REVERT JUMPDEST POP PUSH2 0x725 PUSH2 0x1589 JUMP JUMPDEST STOP JUMPDEST CALLVALUE DUP1 ISZERO PUSH2 0x732 JUMPI PUSH0 DUP1 REVERT JUMPDEST POP PUSH2 0x73B PUSH2 0x162D JUMP JUMPDEST PUSH1 0x40 MLOAD PUSH2 0x748 SWAP2 SWAP1 PUSH2 0x2313 JUMP JUMPDEST PUSH1 0x40 MLOAD DUP1 SWAP2 SUB SWAP1 RETURN JUMPDEST CALLVALUE DUP1 ISZERO PUSH2 0x75C JUMPI PUSH0 DUP1 REVERT JUMPDEST POP PUSH2 0x765 PUSH2 0x1634 JUMP JUMPDEST PUSH1 0x40 MLOAD PUSH2 0x772 SWAP2 SWAP1 PUSH2 0x239B JUMP JUMPDEST PUSH1 0x40 MLOAD DUP1 SWAP2 SUB SWAP1 RETURN JUMPDEST CALLVALUE DUP1 ISZERO PUSH2 0x786 JUMPI PUSH0 DUP1 REVERT JUMPDEST POP PUSH2 0x78F PUSH2 0x1662 JUMP JUMPDEST PUSH1 0x40 MLOAD PUSH2 0x79C SWAP2 SWAP1 PUSH2 0x2313 JUMP JUMPDEST PUSH1 0x40 MLOAD DUP1 SWAP2 SUB SWAP1 RETURN JUMPDEST CALLVALUE DUP1 ISZERO PUSH2 0x7B0 JUMPI PUSH0 DUP1 REVERT JUMPDEST POP PUSH2 0x7B9 PUSH2 0x1667 JUMP JUMPDEST PUSH1 0x40 MLOAD PUSH2 0x7C6 SWAP2 SWAP1 PUSH2 0x239B JUMP JUMPDEST PUSH1 0x40 MLOAD DUP1 SWAP2 SUB SWAP1 RETURN JUMPDEST CALLVALUE DUP1 ISZERO PUSH2 0x7DA JUMPI PUSH0 DUP1 REVERT JUMPDEST POP PUSH2 0x7F5 PUSH1 0x4 DUP1 CALLDATASIZE SUB DUP2 ADD SWAP1 PUSH2 0x7F0 SWAP2 SWAP1 PUSH2 0x21E4 JUMP JUMPDEST PUSH2 0x16FC JUMP JUMPDEST PUSH1 0x40 MLOAD PUSH2 0x802 SWAP2 SWAP1 PUSH2 0x2313 JUMP JUMPDEST PUSH1 0x40 MLOAD DUP1 SWAP2 SUB SWAP1 RETURN JUMPDEST CALLVALUE DUP1 ISZERO PUSH2 0x816 JUMPI PUSH0 DUP1 REVERT JUMPDEST POP PUSH2 0x81F PUSH2 0x1710 JUMP JUMPDEST PUSH1 0x40 MLOAD PUSH2 0x82D SWAP3 SWAP2 SWAP1 PUSH2 0x25B6 JUMP JUMPDEST PUSH1 0x40 MLOAD DUP1 SWAP2 SUB SWAP1 RETURN JUMPDEST CALLVALUE DUP1 ISZERO PUSH2 0x841 JUMPI PUSH0 DUP1 REVERT JUMPDEST POP PUSH2 0x85C PUSH1 0x4 DUP1 CALLDATASIZE SUB DUP2 ADD SWAP1 PUSH2 0x857 SWAP2 SWAP1 PUSH2 0x2356 JUMP JUMPDEST PUSH2 0x171D JUMP JUMPDEST STOP JUMPDEST PUSH2 0x866 PUSH2 0x17EC JUMP JUMPDEST STOP JUMPDEST CALLVALUE DUP1 ISZERO PUSH2 0x873 JUMPI PUSH0 DUP1 REVERT JUMPDEST POP PUSH2 0x88E PUSH1 0x4 DUP1 CALLDATASIZE SUB DUP2 ADD SWAP1 PUSH2 0x889 SWAP2 SWAP1 PUSH2 0x2356 JUMP JUMPDEST PUSH2 0x1945 JUMP JUMPDEST STOP JUMPDEST CALLVALUE DUP1 ISZERO PUSH2 0x89B JUMPI PUSH0 DUP1 REVERT JUMPDEST POP PUSH2 0x8A4 PUSH2 0x1A6F JUMP JUMPDEST PUSH1 0x40 MLOAD PUSH2 0x8B1 SWAP2 SWAP1 PUSH2 0x239B JUMP JUMPDEST PUSH1 0x40 MLOAD DUP1 SWAP2 SUB SWAP1 RETURN JUMPDEST CALLVALUE DUP1 ISZERO PUSH2 0x8C5 JUMPI PUSH0 DUP1 REVERT JUMPDEST POP PUSH2 0x8CE PUSH2 0x1A8B JUMP JUMPDEST PUSH1 0x40 MLOAD PUSH2 0x8DB SWAP2 SWAP1 PUSH2 0x25FD JUMP JUMPDEST PUSH1 0x40 MLOAD DUP1 SWAP2 SUB SWAP1 RETURN JUMPDEST CALLVALUE DUP1 ISZERO PUSH2 0x8EF JUMPI PUSH0 DUP1 REVERT JUMPDEST POP PUSH2 0x8F8 PUSH2 0x1AB0 JUMP JUMPDEST PUSH1 0x40 MLOAD PUSH2 0x905 SWAP2 SWAP1 PUSH2 0x2313 JUMP JUMPDEST PUSH1 0x40 MLOAD DUP1 SWAP2 SUB SWAP1 RETURN JUMPDEST CALLVALUE DUP1 ISZERO PUSH2 0x919 JUMPI PUSH0 DUP1 REVERT JUMPDEST POP PUSH2 0x922 PUSH2 0x1AB5 JUMP JUMPDEST PUSH1 0x40 MLOAD PUSH2 0x92F SWAP2 SWAP1 PUSH2 0x26AD JUMP JUMPDEST PUSH1 0x40 MLOAD DUP1 SWAP2 SUB SWAP1 RETURN JUMPDEST PUSH2 0x940 PUSH2 0x1A6F JUMP JUMPDEST PUSH2 0x97F JUMPI PUSH1 0x40 MLOAD PUSH32 0x8C379A000000000000000000000000000000000000000000000000000000000 DUP2 MSTORE PUSH1 0x4 ADD PUSH2 0x976 SWAP1 PUSH2 0x2721 JUMP JUMPDEST PUSH1 0x40 MLOAD DUP1 SWAP2 SUB SWAP1 REVERT JUMPDEST PUSH0 PUSH2 0x98B DUP4 DUP4 CALLER PUSH2 0x1B6C JUMP JUMPDEST SWAP1 POP PUSH1 0x1 PUSH0 SWAP1 SLOAD SWAP1 PUSH2 0x100 EXP SWAP1 DIV PUSH20 0xFFFFFFFFFFFFFFFFFFFFFFFFFFFFFFFFFFFFFFFF AND PUSH20 0xFFFFFFFFFFFFFFFFFFFFFFFFFFFFFFFFFFFFFFFF AND PUSH4 0x23B872DD CALLER ADDRESS DUP5 PUSH1 0x40 MLOAD DUP5 PUSH4 0xFFFFFFFF AND PUSH1 0xE0 SHL DUP2 MSTORE PUSH1 0x4 ADD PUSH2 0x9EB SWAP4 SWAP3 SWAP2 SWAP1 PUSH2 0x273F JUMP JUMPDEST PUSH1 0x20 PUSH1 0x40 MLOAD DUP1 DUP4 SUB DUP2 PUSH0 DUP8 GAS CALL ISZERO DUP1 ISZERO PUSH2 0xA07 JUMPI RETURNDATASIZE PUSH0 DUP1 RETURNDATACOPY RETURNDATASIZE PUSH0 REVERT JUMPDEST POP POP POP POP PUSH1 0x40 MLOAD RETURNDATASIZE PUSH1 0x1F NOT PUSH1 0x1F DUP3 ADD AND DUP3 ADD DUP1 PUSH1 0x40 MSTORE POP DUP2 ADD SWAP1 PUSH2 0xA2B SWAP2 SWAP1 PUSH2 0x279E JUMP JUMPDEST POP PUSH0 JUMPDEST DUP4 DUP4 SWAP1 POP DUP2 LT ISZERO PUSH2 0xA66 JUMPI PUSH2 0xA5B DUP5 DUP5 DUP4 DUP2 DUP2 LT PUSH2 0xA4F JUMPI PUSH2 0xA4E PUSH2 0x27C9 JUMP JUMPDEST JUMPDEST SWAP1 POP PUSH1 0x60 MUL ADD CALLER PUSH2 0x1C6E JUMP JUMPDEST DUP1 PUSH1 0x1 ADD SWAP1 POP PUSH2 0xA2E JUMP JUMPDEST POP POP POP POP JUMP JUMPDEST PUSH0 DUP3 DUP3 PUSH1 0x18 PUSH2 0xFFFF AND DUP3 PUSH1 0xFF AND LT PUSH2 0xAB9 JUMPI PUSH1 0x40 MLOAD PUSH32 0x8C379A000000000000000000000000000000000000000000000000000000000 DUP2 MSTORE PUSH1 0x4 ADD PUSH2 0xAB0 SWAP1 PUSH2 0x2840 JUMP JUMPDEST PUSH1 0x40 MLOAD DUP1 SWAP2 SUB SWAP1 REVERT JUMPDEST PUSH1 0x18 PUSH2 0xFFFF AND DUP2 PUSH1 0xFF AND LT PUSH2 0xB03 JUMPI PUSH1 0x40 MLOAD PUSH32 0x8C379A000000000000000000000000000000000000000000000000000000000 DUP2 MSTORE PUSH1 0x4 ADD PUSH2 0xAFA SWAP1 PUSH2 0x28A8 JUMP JUMPDEST PUSH1 0x40 MLOAD DUP1 SWAP2 SUB SWAP1 REVERT JUMPDEST PUSH1 0x6 PUSH2 0xB0F DUP7 DUP7 PUSH2 0x14CA JUMP JUMPDEST PUSH2 0xFFFF AND PUSH2 0x240 DUP2 LT PUSH2 0xB25 JUMPI PUSH2 0xB24 PUSH2 0x27C9 JUMP JUMPDEST JUMPDEST PUSH1 0x2 MUL ADD PUSH0 ADD PUSH0 SWAP1 SLOAD SWAP1 PUSH2 0x100 EXP SWAP1 DIV PUSH20 0xFFFFFFFFFFFFFFFFFFFFFFFFFFFFFFFFFFFFFFFF AND SWAP3 POP POP POP SWAP3 SWAP2 POP POP JUMP JUMPDEST PUSH1 0x4 SLOAD DUP2 JUMP JUMPDEST CALLER PUSH20 0xFFFFFFFFFFFFFFFFFFFFFFFFFFFFFFFFFFFFFFFF AND PUSH0 DUP1 SLOAD SWAP1 PUSH2 0x100 EXP SWAP1 DIV PUSH20 0xFFFFFFFFFFFFFFFFFFFFFFFFFFFFFFFFFFFFFFFF AND PUSH20 0xFFFFFFFFFFFFFFFFFFFFFFFFFFFFFFFFFFFFFFFF AND EQ PUSH2 0xBE8 JUMPI PUSH1 0x40 MLOAD PUSH32 0x8C379A000000000000000000000000000000000000000000000000000000000 DUP2 MSTORE PUSH1 0x4 ADD PUSH2 0xBDF SWAP1 PUSH2 0x2910 JUMP JUMPDEST PUSH1 0x40 MLOAD DUP1 SWAP2 SUB SWAP1 REVERT JUMPDEST PUSH0 PUSH20 0xFFFFFFFFFFFFFFFFFFFFFFFFFFFFFFFFFFFFFFFF AND PUSH1 0x1 PUSH0 SWAP1 SLOAD SWAP1 PUSH2 0x100 EXP SWAP1 DIV PUSH20 0xFFFFFFFFFFFFFFFFFFFFFFFFFFFFFFFFFFFFFFFF AND PUSH20 0xFFFFFFFFFFFFFFFFFFFFFFFFFFFFFFFFFFFFFFFF AND EQ PUSH2 0xC40 JUMPI PUSH0 DUP1 REVERT JUMPDEST DUP1 PUSH1 0x1 PUSH0 PUSH2 0x100 EXP DUP2 SLOAD DUP2 PUSH20 0xFFFFFFFFFFFFFFFFFFFFFFFFFFFFFFFFFFFFFFFF MUL NOT AND SWAP1 DUP4 PUSH20 0xFFFFFFFFFFFFFFFFFFFFFFFFFFFFFFFFFFFFFFFF AND MUL OR SWAP1 SSTORE POP POP JUMP JUMPDEST PUSH0 DUP1 PUSH2 0x48A SLOAD GT DUP1 ISZERO PUSH2 0xC99 JUMPI POP TIMESTAMP PUSH2 0x48A SLOAD GT ISZERO JUMPDEST SWAP1 POP SWAP1 JUMP JUMPDEST PUSH2 0x488 PUSH0 SWAP1 SLOAD SWAP1 PUSH2 0x100 EXP SWAP1 DIV PUSH20 0xFFFFFFFFFFFFFFFFFFFFFFFFFFFFFFFFFFFFFFFF AND DUP2 JUMP JUMPDEST CALLER PUSH20 0xFFFFFFFFFFFFFFFFFFFFFFFFFFFFFFFFFFFFFFFF AND PUSH0 DUP1 SLOAD SWAP1 PUSH2 0x100 EXP SWAP1 DIV PUSH20 0xFFFFFFFFFFFFFFFFFFFFFFFFFFFFFFFFFFFFFFFF AND PUSH20 0xFFFFFFFFFFFFFFFFFFFFFFFFFFFFFFFFFFFFFFFF AND EQ PUSH2 0xD51 JUMPI PUSH1 0x40 MLOAD PUSH32 0x8C379A000000000000000000000000000000000000000000000000000000000 DUP2 MSTORE PUSH1 0x4 ADD PUSH2 0xD48 SWAP1 PUSH2 0x2910 JUMP JUMPDEST PUSH1 0x40 MLOAD DUP1 SWAP2 SUB SWAP1 REVERT JUMPDEST PUSH0 DUP1 PUSH0 PUSH2 0x100 EXP DUP2 SLOAD DUP2 PUSH20 0xFFFFFFFFFFFFFFFFFFFFFFFFFFFFFFFFFFFFFFFF MUL NOT AND SWAP1 DUP4 PUSH20 0xFFFFFFFFFFFFFFFFFFFFFFFFFFFFFFFFFFFFFFFF AND MUL OR SWAP1 SSTORE POP PUSH32 0x6E4EE811A17215345B89E3506064FF2D62F4FEEDFF3566E9D09219CDA7E8CADB PUSH1 0x40 MLOAD PUSH1 0x40 MLOAD DUP1 SWAP2 SUB SWAP1 LOG1 JUMP JUMPDEST PUSH0 PUSH1 0x5 SLOAD SWAP1 POP SWAP1 JUMP JUMPDEST PUSH2 0x487 PUSH0 SWAP1 SLOAD SWAP1 PUSH2 0x100 EXP SWAP1 DIV PUSH20 0xFFFFFFFFFFFFFFFFFFFFFFFFFFFFFFFFFFFFFFFF AND DUP2 JUMP JUMPDEST PUSH2 0x48A SLOAD DUP2 JUMP JUMPDEST PUSH2 0xDFC PUSH2 0xC83 JUMP JUMPDEST PUSH2 0xE3B JUMPI PUSH1 0x40 MLOAD PUSH32 0x8C379A000000000000000000000000000000000000000000000000000000000 DUP2 MSTORE PUSH1 0x4 ADD PUSH2 0xE32 SWAP1 PUSH2 0x2978 JUMP JUMPDEST PUSH1 0x40 MLOAD DUP1 SWAP2 SUB SWAP1 REVERT JUMPDEST PUSH2 0xE43 PUSH2 0x1667 JUMP JUMPDEST PUSH2 0xE50 JUMPI PUSH2 0xE4F PUSH2 0x10B2 JUMP JUMPDEST JUMPDEST PUSH2 0x48D PUSH0 CALLER PUSH20 0xFFFFFFFFFFFFFFFFFFFFFFFFFFFFFFFFFFFFFFFF AND PUSH20 0xFFFFFFFFFFFFFFFFFFFFFFFFFFFFFFFFFFFFFFFF AND DUP2 MSTORE PUSH1 0x20 ADD SWAP1 DUP2 MSTORE PUSH1 0x20 ADD PUSH0 KECCAK256 PUSH0 SWAP1 SLOAD SWAP1 PUSH2 0x100 EXP SWAP1 DIV PUSH1 0xFF AND ISZERO PUSH2 0xEDB JUMPI PUSH1 0x40 MLOAD PUSH32 0x8C379A000000000000000000000000000000000000000000000000000000000 DUP2 MSTORE PUSH1 0x4 ADD PUSH2 0xED2 SWAP1 PUSH2 0x29E0 JUMP JUMPDEST PUSH1 0x40 MLOAD DUP1 SWAP2 SUB SWAP1 REVERT JUMPDEST PUSH1 0x1 PUSH2 0x48D PUSH0 CALLER PUSH20 0xFFFFFFFFFFFFFFFFFFFFFFFFFFFFFFFFFFFFFFFF AND PUSH20 0xFFFFFFFFFFFFFFFFFFFFFFFFFFFFFFFFFFFFFFFF AND DUP2 MSTORE PUSH1 0x20 ADD SWAP1 DUP2 MSTORE PUSH1 0x20 ADD PUSH0 KECCAK256 PUSH0 PUSH2 0x100 EXP DUP2 SLOAD DUP2 PUSH1 0xFF MUL NOT AND SWAP1 DUP4 ISZERO ISZERO MUL OR SWAP1 SSTORE POP PUSH0 PUSH2 0x486 PUSH0 CALLER PUSH20 0xFFFFFFFFFFFFFFFFFFFFFFFFFFFFFFFFFFFFFFFF AND PUSH20 0xFFFFFFFFFFFFFFFFFFFFFFFFFFFFFFFFFFFFFFFF AND DUP2 MSTORE PUSH1 0x20 ADD SWAP1 DUP2 MSTORE PUSH1 0x20 ADD PUSH0 KECCAK256 PUSH0 SWAP1 SLOAD SWAP1 PUSH2 0x100 EXP SWAP1 DIV PUSH2 0xFFFF AND PUSH2 0xFFFF AND SWAP1 POP PUSH0 DUP2 GT PUSH2 0xFC6 JUMPI PUSH1 0x40 MLOAD PUSH32 0x8C379A000000000000000000000000000000000000000000000000000000000 DUP2 MSTORE PUSH1 0x4 ADD PUSH2 0xFBD SWAP1 PUSH2 0x2A48 JUMP JUMPDEST PUSH1 0x40 MLOAD DUP1 SWAP2 SUB SWAP1 REVERT JUMPDEST PUSH2 0xFEB CALLER PUSH1 0x4 SLOAD DUP4 PUSH2 0x48B SLOAD PUSH2 0xFDC SWAP2 SWAP1 PUSH2 0x2A93 JUMP JUMPDEST PUSH2 0xFE6 SWAP2 SWAP1 PUSH2 0x2B01 JUMP JUMPDEST PUSH2 0x1F7D JUMP JUMPDEST PUSH1 0x1 PUSH0 SWAP1 SLOAD SWAP1 PUSH2 0x100 EXP SWAP1 DIV PUSH20 0xFFFFFFFFFFFFFFFFFFFFFFFFFFFFFFFFFFFFFFFF AND PUSH20 0xFFFFFFFFFFFFFFFFFFFFFFFFFFFFFFFFFFFFFFFF AND PUSH4 0xA9059CBB PUSH0 PUSH1 0x4 SLOAD DUP5 PUSH2 0x48C SLOAD PUSH2 0x103B SWAP2 SWAP1 PUSH2 0x2A93 JUMP JUMPDEST PUSH2 0x1045 SWAP2 SWAP1 PUSH2 0x2B01 JUMP JUMPDEST PUSH1 0x40 MLOAD DUP4 PUSH4 0xFFFFFFFF AND PUSH1 0xE0 SHL DUP2 MSTORE PUSH1 0x4 ADD PUSH2 0x1062 SWAP3 SWAP2 SWAP1 PUSH2 0x2B31 JUMP JUMPDEST PUSH1 0x20 PUSH1 0x40 MLOAD DUP1 DUP4 SUB DUP2 PUSH0 DUP8 GAS CALL ISZERO DUP1 ISZERO PUSH2 0x107E JUMPI RETURNDATASIZE PUSH0 DUP1 RETURNDATACOPY RETURNDATASIZE PUSH0 REVERT JUMPDEST POP POP POP POP PUSH1 0x40 MLOAD RETURNDATASIZE PUSH1 0x1F NOT PUSH1 0x1F DUP3 ADD AND DUP3 ADD DUP1 PUSH1 0x40 MSTORE POP DUP2 ADD SWAP1 PUSH2 0x10A2 SWAP2 SWAP1 PUSH2 0x279E JUMP JUMPDEST POP POP JUMP JUMPDEST PUSH0 DUP1 PUSH1 0x5 SLOAD EQ ISZERO SWAP1 POP SWAP1 JUMP JUMPDEST PUSH2 0x10BA PUSH2 0xC83 JUMP JUMPDEST PUSH2 0x10F9 JUMPI PUSH1 0x40 MLOAD PUSH32 0x8C379A000000000000000000000000000000000000000000000000000000000 DUP2 MSTORE PUSH1 0x4 ADD PUSH2 0x10F0 SWAP1 PUSH2 0x2978 JUMP JUMPDEST PUSH1 0x40 MLOAD DUP1 SWAP2 SUB SWAP1 REVERT JUMPDEST PUSH2 0x1101 PUSH2 0x1667 JUMP JUMPDEST ISZERO PUSH2 0x1141 JUMPI PUSH1 0x40 MLOAD PUSH32 0x8C379A000000000000000000000000000000000000000000000000000000000 DUP2 MSTORE PUSH1 0x4 ADD PUSH2 0x1138 SWAP1 PUSH2 0x2BA2 JUMP JUMPDEST PUSH1 0x40 MLOAD DUP1 SWAP2 SUB SWAP1 REVERT JUMPDEST PUSH2 0x487 PUSH0 SWAP1 SLOAD SWAP1 PUSH2 0x100 EXP SWAP1 DIV PUSH20 0xFFFFFFFFFFFFFFFFFFFFFFFFFFFFFFFFFFFFFFFF AND PUSH20 0xFFFFFFFFFFFFFFFFFFFFFFFFFFFFFFFFFFFFFFFF AND PUSH4 0x1A695230 PUSH2 0x488 PUSH0 SWAP1 SLOAD SWAP1 PUSH2 0x100 EXP SWAP1 DIV PUSH20 0xFFFFFFFFFFFFFFFFFFFFFFFFFFFFFFFFFFFFFFFF AND PUSH1 0x40 MLOAD DUP3 PUSH4 0xFFFFFFFF AND PUSH1 0xE0 SHL DUP2 MSTORE PUSH1 0x4 ADD PUSH2 0x11BE SWAP2 SWAP1 PUSH2 0x22E2 JUMP JUMPDEST PUSH0 PUSH1 0x40 MLOAD DUP1 DUP4 SUB DUP2 PUSH0 DUP8 DUP1 EXTCODESIZE ISZERO DUP1 ISZERO PUSH2 0x11D5 JUMPI PUSH0 DUP1 REVERT JUMPDEST POP GAS CALL ISZERO DUP1 ISZERO PUSH2 0x11E7 JUMPI RETURNDATASIZE PUSH0 DUP1 RETURNDATACOPY RETURNDATASIZE PUSH0 REVERT JUMPDEST POP POP POP POP PUSH2 0x1224 PUSH32 0x0 PUSH1 0x5 PUSH2 0x489 SLOAD PUSH2 0x121F SWAP2 SWAP1 PUSH2 0x2B01 JUMP JUMPDEST PUSH2 0x1F7D JUMP JUMPDEST SELFBALANCE PUSH2 0x48B DUP2 SWAP1 SSTORE POP PUSH1 0x1 PUSH0 SWAP1 SLOAD SWAP1 PUSH2 0x100 EXP SWAP1 DIV PUSH20 0xFFFFFFFFFFFFFFFFFFFFFFFFFFFFFFFFFFFFFFFF AND PUSH20 0xFFFFFFFFFFFFFFFFFFFFFFFFFFFFFFFFFFFFFFFF AND PUSH4 0x70A08231 ADDRESS PUSH1 0x40 MLOAD DUP3 PUSH4 0xFFFFFFFF AND PUSH1 0xE0 SHL DUP2 MSTORE PUSH1 0x4 ADD PUSH2 0x1286 SWAP2 SWAP1 PUSH2 0x22E2 JUMP JUMPDEST PUSH1 0x20 PUSH1 0x40 MLOAD DUP1 DUP4 SUB DUP2 DUP7 GAS STATICCALL ISZERO DUP1 ISZERO PUSH2 0x12A1 JUMPI RETURNDATASIZE PUSH0 DUP1 RETURNDATACOPY RETURNDATASIZE PUSH0 REVERT JUMPDEST POP POP POP POP PUSH1 0x40 MLOAD RETURNDATASIZE PUSH1 0x1F NOT PUSH1 0x1F DUP3 ADD AND DUP3 ADD DUP1 PUSH1 0x40 MSTORE POP DUP2 ADD SWAP1 PUSH2 0x12C5 SWAP2 SWAP1 PUSH2 0x2BEA JUMP JUMPDEST PUSH2 0x48C DUP2 SWAP1 SSTORE POP JUMP JUMPDEST PUSH1 0x3 SLOAD DUP2 JUMP JUMPDEST PUSH2 0x12DC PUSH2 0x20FA JUMP JUMPDEST PUSH1 0x6 PUSH2 0x240 DUP1 PUSH1 0x20 MUL PUSH1 0x40 MLOAD SWAP1 DUP2 ADD PUSH1 0x40 MSTORE DUP1 SWAP3 SWAP2 SWAP1 PUSH0 SWAP1 JUMPDEST DUP3 DUP3 LT ISZERO PUSH2 0x137B JUMPI DUP4 DUP3 PUSH1 0x2 MUL ADD PUSH1 0x40 MLOAD DUP1 PUSH1 0x40 ADD PUSH1 0x40 MSTORE SWAP1 DUP2 PUSH0 DUP3 ADD PUSH0 SWAP1 SLOAD SWAP1 PUSH2 0x100 EXP SWAP1 DIV PUSH20 0xFFFFFFFFFFFFFFFFFFFFFFFFFFFFFFFFFFFFFFFF AND PUSH20 0xFFFFFFFFFFFFFFFFFFFFFFFFFFFFFFFFFFFFFFFF AND PUSH20 0xFFFFFFFFFFFFFFFFFFFFFFFFFFFFFFFFFFFFFFFF AND DUP2 MSTORE PUSH1 0x20 ADD PUSH1 0x1 DUP3 ADD SLOAD DUP2 MSTORE POP POP DUP2 MSTORE PUSH1 0x20 ADD SWAP1 PUSH1 0x1 ADD SWAP1 PUSH2 0x12F5 JUMP JUMPDEST POP POP POP POP SWAP1 POP SWAP1 JUMP JUMPDEST PUSH0 PUSH2 0x1390 DUP5 DUP5 DUP5 PUSH2 0x1B6C JUMP JUMPDEST SWAP1 POP SWAP4 SWAP3 POP POP POP JUMP JUMPDEST PUSH1 0x5 DUP2 JUMP JUMPDEST PUSH1 0x9 PUSH1 0xA PUSH2 0x13AC SWAP2 SWAP1 PUSH2 0x2D44 JUMP JUMPDEST PUSH1 0x1 PUSH2 0x13B8 SWAP2 SWAP1 PUSH2 0x2A93 JUMP JUMPDEST DUP2 JUMP JUMPDEST PUSH2 0x48D PUSH1 0x20 MSTORE DUP1 PUSH0 MSTORE PUSH1 0x40 PUSH0 KECCAK256 PUSH0 SWAP2 POP SLOAD SWAP1 PUSH2 0x100 EXP SWAP1 DIV PUSH1 0xFF AND DUP2 JUMP JUMPDEST PUSH0 DUP1 PUSH0 SWAP1 SLOAD SWAP1 PUSH2 0x100 EXP SWAP1 DIV PUSH20 0xFFFFFFFFFFFFFFFFFFFFFFFFFFFFFFFFFFFFFFFF AND SWAP1 POP SWAP1 JUMP JUMPDEST PUSH2 0x48B SLOAD DUP2 JUMP JUMPDEST PUSH0 PUSH1 0x64 PUSH1 0x5 PUSH2 0x489 SLOAD PUSH2 0x141A SWAP2 SWAP1 PUSH2 0x2A93 JUMP JUMPDEST PUSH2 0x1424 SWAP2 SWAP1 PUSH2 0x2B01 JUMP JUMPDEST SWAP1 POP SWAP1 JUMP JUMPDEST PUSH0 PUSH32 0x0 SWAP1 POP SWAP1 JUMP JUMPDEST PUSH2 0x48C SLOAD DUP2 JUMP JUMPDEST PUSH1 0x2 SLOAD DUP2 JUMP JUMPDEST PUSH0 PUSH2 0x486 PUSH0 DUP4 PUSH20 0xFFFFFFFFFFFFFFFFFFFFFFFFFFFFFFFFFFFFFFFF AND PUSH20 0xFFFFFFFFFFFFFFFFFFFFFFFFFFFFFFFFFFFFFFFF AND DUP2 MSTORE PUSH1 0x20 ADD SWAP1 DUP2 MSTORE PUSH1 0x20 ADD PUSH0 KECCAK256 PUSH0 SWAP1 SLOAD SWAP1 PUSH2 0x100 EXP SWAP1 DIV PUSH2 0xFFFF AND SWAP1 POP SWAP2 SWAP1 POP JUMP JUMPDEST PUSH0 DUP1 PUSH1 0x5 SLOAD GT DUP1 ISZERO PUSH2 0x14C5 JUMPI POP TIMESTAMP PUSH1 0x5 SLOAD GT ISZERO JUMPDEST SWAP1 POP SWAP1 JUMP JUMPDEST PUSH0 DUP3 DUP3 PUSH1 0x18 PUSH2 0xFFFF AND DUP3 PUSH1 0xFF AND LT PUSH2 0x1517 JUMPI PUSH1 0x40 MLOAD PUSH32 0x8C379A000000000000000000000000000000000000000000000000000000000 DUP2 MSTORE PUSH1 0x4 ADD PUSH2 0x150E SWAP1 PUSH2 0x2840 JUMP JUMPDEST PUSH1 0x40 MLOAD DUP1 SWAP2 SUB SWAP1 REVERT JUMPDEST PUSH1 0x18 PUSH2 0xFFFF AND DUP2 PUSH1 0xFF AND LT PUSH2 0x1561 JUMPI PUSH1 0x40 MLOAD PUSH32 0x8C379A000000000000000000000000000000000000000000000000000000000 DUP2 MSTORE PUSH1 0x4 ADD PUSH2 0x1558 SWAP1 PUSH2 0x28A8 JUMP JUMPDEST PUSH1 0x40 MLOAD DUP1 SWAP2 SUB SWAP1 REVERT JUMPDEST DUP5 PUSH1 0xFF AND DUP5 PUSH1 0xFF AND PUSH1 0x18 PUSH2 0x1575 SWAP2 SWAP1 PUSH2 0x2D8E JUMP JUMPDEST PUSH2 0x157F SWAP2 SWAP1 PUSH2 0x2DCA JUMP JUMPDEST SWAP3 POP POP POP SWAP3 SWAP2 POP POP JUMP JUMPDEST CALLER PUSH20 0xFFFFFFFFFFFFFFFFFFFFFFFFFFFFFFFFFFFFFFFF AND PUSH0 DUP1 SLOAD SWAP1 PUSH2 0x100 EXP SWAP1 DIV PUSH20 0xFFFFFFFFFFFFFFFFFFFFFFFFFFFFFFFFFFFFFFFF AND PUSH20 0xFFFFFFFFFFFFFFFFFFFFFFFFFFFFFFFFFFFFFFFF AND EQ PUSH2 0x1616 JUMPI PUSH1 0x40 MLOAD PUSH32 0x8C379A000000000000000000000000000000000000000000000000000000000 DUP2 MSTORE PUSH1 0x4 ADD PUSH2 0x160D SWAP1 PUSH2 0x2910 JUMP JUMPDEST PUSH1 0x40 MLOAD DUP1 SWAP2 SUB SWAP1 REVERT JUMPDEST PUSH3 0x15180 TIMESTAMP PUSH2 0x1625 SWAP2 SWAP1 PUSH2 0x2DFF JUMP JUMPDEST PUSH1 0x5 DUP2 SWAP1 SSTORE POP JUMP JUMPDEST PUSH2 0x489 SLOAD DUP2 JUMP JUMPDEST PUSH0 PUSH2 0x163D PUSH2 0x14B1 JUMP JUMPDEST PUSH2 0x1649 JUMPI PUSH0 SWAP1 POP PUSH2 0x165F JUMP JUMPDEST PUSH0 PUSH2 0x48A SLOAD EQ DUP1 PUSH2 0x165C JUMPI POP PUSH2 0x48A SLOAD TIMESTAMP LT JUMPDEST SWAP1 POP JUMPDEST SWAP1 JUMP JUMPDEST PUSH1 0x3C DUP2 JUMP JUMPDEST PUSH0 PUSH2 0x487 PUSH0 SWAP1 SLOAD SWAP1 PUSH2 0x100 EXP SWAP1 DIV PUSH20 0xFFFFFFFFFFFFFFFFFFFFFFFFFFFFFFFFFFFFFFFF AND PUSH20 0xFFFFFFFFFFFFFFFFFFFFFFFFFFFFFFFFFFFFFFFF AND PUSH4 0x603159AB PUSH1 0x40 MLOAD DUP2 PUSH4 0xFFFFFFFF AND PUSH1 0xE0 SHL DUP2 MSTORE PUSH1 0x4 ADD PUSH1 0x20 PUSH1 0x40 MLOAD DUP1 DUP4 SUB DUP2 DUP7 GAS STATICCALL ISZERO DUP1 ISZERO PUSH2 0x16D3 JUMPI RETURNDATASIZE PUSH0 DUP1 RETURNDATACOPY RETURNDATASIZE PUSH0 REVERT JUMPDEST POP POP POP POP PUSH1 0x40 MLOAD RETURNDATASIZE PUSH1 0x1F NOT PUSH1 0x1F DUP3 ADD AND DUP3 ADD DUP1 PUSH1 0x40 MSTORE POP DUP2 ADD SWAP1 PUSH2 0x16F7 SWAP2 SWAP1 PUSH2 0x279E JUMP JUMPDEST SWAP1 POP SWAP1 JUMP JUMPDEST PUSH0 PUSH2 0x1708 DUP4 DUP4 CALLER PUSH2 0x1B6C JUMP JUMPDEST SWAP1 POP SWAP3 SWAP2 POP POP JUMP JUMPDEST PUSH0 DUP1 PUSH1 0x18 DUP1 SWAP2 POP SWAP2 POP SWAP1 SWAP2 JUMP JUMPDEST CALLER PUSH20 0xFFFFFFFFFFFFFFFFFFFFFFFFFFFFFFFFFFFFFFFF AND PUSH0 DUP1 SLOAD SWAP1 PUSH2 0x100 EXP SWAP1 DIV PUSH20 0xFFFFFFFFFFFFFFFFFFFFFFFFFFFFFFFFFFFFFFFF AND PUSH20 0xFFFFFFFFFFFFFFFFFFFFFFFFFFFFFFFFFFFFFFFF AND EQ PUSH2 0x17AA JUMPI PUSH1 0x40 MLOAD PUSH32 0x8C379A000000000000000000000000000000000000000000000000000000000 DUP2 MSTORE PUSH1 0x4 ADD PUSH2 0x17A1 SWAP1 PUSH2 0x2910 JUMP JUMPDEST PUSH1 0x40 MLOAD DUP1 SWAP2 SUB SWAP1 REVERT JUMPDEST DUP1 PUSH0 DUP1 PUSH2 0x100 EXP DUP2 SLOAD DUP2 PUSH20 0xFFFFFFFFFFFFFFFFFFFFFFFFFFFFFFFFFFFFFFFF MUL NOT AND SWAP1 DUP4 PUSH20 0xFFFFFFFFFFFFFFFFFFFFFFFFFFFFFFFFFFFFFFFF AND MUL OR SWAP1 SSTORE POP POP JUMP JUMPDEST PUSH2 0x17F4 PUSH2 0x1407 JUMP JUMPDEST CALLVALUE GT PUSH2 0x1835 JUMPI PUSH1 0x40 MLOAD PUSH32 0x8C379A000000000000000000000000000000000000000000000000000000000 DUP2 MSTORE PUSH1 0x4 ADD PUSH2 0x182C SWAP1 PUSH2 0x2E7C JUMP JUMPDEST PUSH1 0x40 MLOAD DUP1 SWAP2 SUB SWAP1 REVERT JUMPDEST PUSH0 PUSH20 0xFFFFFFFFFFFFFFFFFFFFFFFFFFFFFFFFFFFFFFFF AND PUSH2 0x488 PUSH0 SWAP1 SLOAD SWAP1 PUSH2 0x100 EXP SWAP1 DIV PUSH20 0xFFFFFFFFFFFFFFFFFFFFFFFFFFFFFFFFFFFFFFFF AND PUSH20 0xFFFFFFFFFFFFFFFFFFFFFFFFFFFFFFFFFFFFFFFF AND EQ PUSH2 0x18BA JUMPI PUSH2 0x18B9 PUSH2 0x488 PUSH0 SWAP1 SLOAD SWAP1 PUSH2 0x100 EXP SWAP1 DIV PUSH20 0xFFFFFFFFFFFFFFFFFFFFFFFFFFFFFFFFFFFFFFFF AND PUSH2 0x489 SLOAD PUSH2 0x1F7D JUMP JUMPDEST JUMPDEST CALLER PUSH2 0x488 PUSH0 PUSH2 0x100 EXP DUP2 SLOAD DUP2 PUSH20 0xFFFFFFFFFFFFFFFFFFFFFFFFFFFFFFFFFFFFFFFF MUL NOT AND SWAP1 DUP4 PUSH20 0xFFFFFFFFFFFFFFFFFFFFFFFFFFFFFFFFFFFFFFFF AND MUL OR SWAP1 SSTORE POP CALLVALUE PUSH2 0x489 DUP2 SWAP1 SSTORE POP PUSH0 PUSH2 0x48A SLOAD SUB PUSH2 0x1928 JUMPI PUSH3 0x15180 TIMESTAMP PUSH2 0x191C SWAP2 SWAP1 PUSH2 0x2DFF JUMP JUMPDEST PUSH2 0x48A DUP2 SWAP1 SSTORE POP PUSH2 0x1943 JUMP JUMPDEST PUSH1 0x3C PUSH2 0x48A PUSH0 DUP3 DUP3 SLOAD PUSH2 0x193B SWAP2 SWAP1 PUSH2 0x2DFF JUMP JUMPDEST SWAP3 POP POP DUP2 SWAP1 SSTORE POP JUMPDEST JUMP JUMPDEST CALLER PUSH20 0xFFFFFFFFFFFFFFFFFFFFFFFFFFFFFFFFFFFFFFFF AND PUSH0 DUP1 SLOAD SWAP1 PUSH2 0x100 EXP SWAP1 DIV PUSH20 0xFFFFFFFFFFFFFFFFFFFFFFFFFFFFFFFFFFFFFFFF AND PUSH20 0xFFFFFFFFFFFFFFFFFFFFFFFFFFFFFFFFFFFFFFFF AND EQ PUSH2 0x19D2 JUMPI PUSH1 0x40 MLOAD PUSH32 0x8C379A000000000000000000000000000000000000000000000000000000000 DUP2 MSTORE PUSH1 0x4 ADD PUSH2 0x19C9 SWAP1 PUSH2 0x2910 JUMP JUMPDEST PUSH1 0x40 MLOAD DUP1 SWAP2 SUB SWAP1 REVERT JUMPDEST PUSH0 PUSH20 0xFFFFFFFFFFFFFFFFFFFFFFFFFFFFFFFFFFFFFFFF AND PUSH2 0x487 PUSH0 SWAP1 SLOAD SWAP1 PUSH2 0x100 EXP SWAP1 DIV PUSH20 0xFFFFFFFFFFFFFFFFFFFFFFFFFFFFFFFFFFFFFFFF AND PUSH20 0xFFFFFFFFFFFFFFFFFFFFFFFFFFFFFFFFFFFFFFFF AND EQ PUSH2 0x1A2B JUMPI PUSH0 DUP1 REVERT JUMPDEST DUP1 PUSH2 0x487 PUSH0 PUSH2 0x100 EXP DUP2 SLOAD DUP2 PUSH20 0xFFFFFFFFFFFFFFFFFFFFFFFFFFFFFFFFFFFFFFFF MUL NOT AND SWAP1 DUP4 PUSH20 0xFFFFFFFFFFFFFFFFFFFFFFFFFFFFFFFFFFFFFFFF AND MUL OR SWAP1 SSTORE POP POP JUMP JUMPDEST PUSH0 DUP1 PUSH1 0x5 SLOAD GT DUP1 ISZERO PUSH2 0x1A86 JUMPI POP PUSH2 0x1A84 PUSH2 0x14B1 JUMP JUMPDEST ISZERO JUMPDEST SWAP1 POP SWAP1 JUMP JUMPDEST PUSH1 0x1 PUSH0 SWAP1 SLOAD SWAP1 PUSH2 0x100 EXP SWAP1 DIV PUSH20 0xFFFFFFFFFFFFFFFFFFFFFFFFFFFFFFFFFFFFFFFF AND DUP2 JUMP JUMPDEST PUSH1 0x64 DUP2 JUMP JUMPDEST PUSH2 0x1ABD PUSH2 0x2129 JUMP JUMPDEST PUSH0 JUMPDEST PUSH1 0x18 DUP1 PUSH2 0x1ACC SWAP2 SWAP1 PUSH2 0x2D8E JUMP JUMPDEST PUSH2 0xFFFF AND DUP2 LT ISZERO PUSH2 0x1B68 JUMPI PUSH1 0x6 DUP2 PUSH2 0x240 DUP2 LT PUSH2 0x1AEC JUMPI PUSH2 0x1AEB PUSH2 0x27C9 JUMP JUMPDEST JUMPDEST PUSH1 0x2 MUL ADD PUSH0 ADD PUSH0 SWAP1 SLOAD SWAP1 PUSH2 0x100 EXP SWAP1 DIV PUSH20 0xFFFFFFFFFFFFFFFFFFFFFFFFFFFFFFFFFFFFFFFF AND DUP3 DUP3 PUSH2 0x240 DUP2 LT PUSH2 0x1B26 JUMPI PUSH2 0x1B25 PUSH2 0x27C9 JUMP JUMPDEST JUMPDEST PUSH1 0x20 MUL ADD SWAP1 PUSH20 0xFFFFFFFFFFFFFFFFFFFFFFFFFFFFFFFFFFFFFFFF AND SWAP1 DUP2 PUSH20 0xFFFFFFFFFFFFFFFFFFFFFFFFFFFFFFFFFFFFFFFF AND DUP2 MSTORE POP POP DUP1 PUSH1 0x1 ADD SWAP1 POP PUSH2 0x1ABF JUMP JUMPDEST POP SWAP1 JUMP JUMPDEST PUSH0 DUP1 PUSH0 JUMPDEST DUP6 DUP6 SWAP1 POP DUP2 LT ISZERO PUSH2 0x1C62 JUMPI PUSH2 0x1C4A PUSH2 0x1BDB DUP8 DUP8 DUP5 DUP2 DUP2 LT PUSH2 0x1B94 JUMPI PUSH2 0x1B93 PUSH2 0x27C9 JUMP JUMPDEST JUMPDEST SWAP1 POP PUSH1 0x60 MUL ADD PUSH0 ADD PUSH1 0x20 DUP2 ADD SWAP1 PUSH2 0x1BAB SWAP2 SWAP1 PUSH2 0x2E9A JUMP JUMPDEST DUP9 DUP9 DUP6 DUP2 DUP2 LT PUSH2 0x1BBE JUMPI PUSH2 0x1BBD PUSH2 0x27C9 JUMP JUMPDEST JUMPDEST SWAP1 POP PUSH1 0x60 MUL ADD PUSH1 0x20 ADD PUSH1 0x20 DUP2 ADD SWAP1 PUSH2 0x1BD6 SWAP2 SWAP1 PUSH2 0x2E9A JUMP JUMPDEST PUSH2 0x202A JUMP JUMPDEST PUSH1 0x40 MLOAD DUP1 PUSH1 0x40 ADD PUSH1 0x40 MSTORE SWAP1 DUP2 PUSH0 DUP3 ADD PUSH0 SWAP1 SLOAD SWAP1 PUSH2 0x100 EXP SWAP1 DIV PUSH20 0xFFFFFFFFFFFFFFFFFFFFFFFFFFFFFFFFFFFFFFFF AND PUSH20 0xFFFFFFFFFFFFFFFFFFFFFFFFFFFFFFFFFFFFFFFF AND PUSH20 0xFFFFFFFFFFFFFFFFFFFFFFFFFFFFFFFFFFFFFFFF AND DUP2 MSTORE PUSH1 0x20 ADD PUSH1 0x1 DUP3 ADD SLOAD DUP2 MSTORE POP POP DUP6 PUSH2 0x2059 JUMP JUMPDEST DUP3 PUSH2 0x1C55 SWAP2 SWAP1 PUSH2 0x2DFF JUMP JUMPDEST SWAP2 POP DUP1 PUSH1 0x1 ADD SWAP1 POP PUSH2 0x1B70 JUMP JUMPDEST POP DUP1 SWAP2 POP POP SWAP4 SWAP3 POP POP POP JUMP JUMPDEST PUSH0 PUSH2 0x1C9C DUP4 PUSH0 ADD PUSH1 0x20 DUP2 ADD SWAP1 PUSH2 0x1C84 SWAP2 SWAP1 PUSH2 0x2E9A JUMP JUMPDEST DUP5 PUSH1 0x20 ADD PUSH1 0x20 DUP2 ADD SWAP1 PUSH2 0x1C97 SWAP2 SWAP1 PUSH2 0x2E9A JUMP JUMPDEST PUSH2 0x14CA JUMP JUMPDEST SWAP1 POP PUSH0 PUSH1 0x6 DUP3 PUSH2 0xFFFF AND PUSH2 0x240 DUP2 LT PUSH2 0x1CB8 JUMPI PUSH2 0x1CB7 PUSH2 0x27C9 JUMP JUMPDEST JUMPDEST PUSH1 0x2 MUL ADD SWAP1 POP PUSH0 DUP2 PUSH0 ADD PUSH0 SWAP1 SLOAD SWAP1 PUSH2 0x100 EXP SWAP1 DIV PUSH20 0xFFFFFFFFFFFFFFFFFFFFFFFFFFFFFFFFFFFFFFFF AND SWAP1 POP PUSH0 PUSH20 0xFFFFFFFFFFFFFFFFFFFFFFFFFFFFFFFFFFFFFFFF AND DUP2 PUSH20 0xFFFFFFFFFFFFFFFFFFFFFFFFFFFFFFFFFFFFFFFF AND EQ PUSH2 0x1D8D JUMPI PUSH2 0x486 PUSH0 DUP3 PUSH20 0xFFFFFFFFFFFFFFFFFFFFFFFFFFFFFFFFFFFFFFFF AND PUSH20 0xFFFFFFFFFFFFFFFFFFFFFFFFFFFFFFFFFFFFFFFF AND DUP2 MSTORE PUSH1 0x20 ADD SWAP1 DUP2 MSTORE PUSH1 0x20 ADD PUSH0 KECCAK256 PUSH0 DUP2 DUP2 SWAP1 SLOAD SWAP1 PUSH2 0x100 EXP SWAP1 DIV PUSH2 0xFFFF AND PUSH2 0x1D6E SWAP1 PUSH2 0x2EC5 JUMP JUMPDEST SWAP2 SWAP1 PUSH2 0x100 EXP DUP2 SLOAD DUP2 PUSH2 0xFFFF MUL NOT AND SWAP1 DUP4 PUSH2 0xFFFF AND MUL OR SWAP1 SSTORE POP PUSH2 0x1DA3 JUMP JUMPDEST PUSH1 0x4 PUSH0 DUP2 SLOAD PUSH2 0x1D9B SWAP1 PUSH2 0x2EEC JUMP JUMPDEST SWAP2 SWAP1 POP DUP2 SWAP1 SSTORE POP JUMPDEST PUSH2 0x486 PUSH0 CALLER PUSH20 0xFFFFFFFFFFFFFFFFFFFFFFFFFFFFFFFFFFFFFFFF AND PUSH20 0xFFFFFFFFFFFFFFFFFFFFFFFFFFFFFFFFFFFFFFFF AND DUP2 MSTORE PUSH1 0x20 ADD SWAP1 DUP2 MSTORE PUSH1 0x20 ADD PUSH0 KECCAK256 PUSH0 DUP2 DUP2 SWAP1 SLOAD SWAP1 PUSH2 0x100 EXP SWAP1 DIV PUSH2 0xFFFF AND PUSH2 0x1DFA SWAP1 PUSH2 0x2F33 JUMP JUMPDEST SWAP2 SWAP1 PUSH2 0x100 EXP DUP2 SLOAD DUP2 PUSH2 0xFFFF MUL NOT AND SWAP1 DUP4 PUSH2 0xFFFF AND MUL OR SWAP1 SSTORE POP PUSH2 0x1E87 DUP3 PUSH1 0x40 MLOAD DUP1 PUSH1 0x40 ADD PUSH1 0x40 MSTORE SWAP1 DUP2 PUSH0 DUP3 ADD PUSH0 SWAP1 SLOAD SWAP1 PUSH2 0x100 EXP SWAP1 DIV PUSH20 0xFFFFFFFFFFFFFFFFFFFFFFFFFFFFFFFFFFFFFFFF AND PUSH20 0xFFFFFFFFFFFFFFFFFFFFFFFFFFFFFFFFFFFFFFFF AND PUSH20 0xFFFFFFFFFFFFFFFFFFFFFFFFFFFFFFFFFFFFFFFF AND DUP2 MSTORE PUSH1 0x20 ADD PUSH1 0x1 DUP3 ADD SLOAD DUP2 MSTORE POP POP DUP6 PUSH2 0x2059 JUMP JUMPDEST DUP3 PUSH1 0x1 ADD DUP2 SWAP1 SSTORE POP CALLER DUP3 PUSH0 ADD PUSH0 PUSH2 0x100 EXP DUP2 SLOAD DUP2 PUSH20 0xFFFFFFFFFFFFFFFFFFFFFFFFFFFFFFFFFFFFFFFF MUL NOT AND SWAP1 DUP4 PUSH20 0xFFFFFFFFFFFFFFFFFFFFFFFFFFFFFFFFFFFFFFFF AND MUL OR SWAP1 SSTORE POP PUSH32 0x0 PUSH20 0xFFFFFFFFFFFFFFFFFFFFFFFFFFFFFFFFFFFFFFFF AND PUSH4 0x133C543D DUP5 DUP8 PUSH1 0x40 ADD CALLDATALOAD PUSH1 0x40 MLOAD DUP4 PUSH4 0xFFFFFFFF AND PUSH1 0xE0 SHL DUP2 MSTORE PUSH1 0x4 ADD PUSH2 0x1F2F SWAP3 SWAP2 SWAP1 PUSH2 0x2F5C JUMP JUMPDEST PUSH0 PUSH1 0x40 MLOAD DUP1 DUP4 SUB DUP2 PUSH0 DUP8 DUP1 EXTCODESIZE ISZERO DUP1 ISZERO PUSH2 0x1F46 JUMPI PUSH0 DUP1 REVERT JUMPDEST POP GAS CALL ISZERO DUP1 ISZERO PUSH2 0x1F58 JUMPI RETURNDATASIZE PUSH0 DUP1 RETURNDATACOPY RETURNDATASIZE PUSH0 REVERT JUMPDEST POP POP POP POP PUSH1 0x3 SLOAD PUSH1 0x5 PUSH0 DUP3 DUP3 SLOAD PUSH2 0x1F6F SWAP2 SWAP1 PUSH2 0x2DFF JUMP JUMPDEST SWAP3 POP POP DUP2 SWAP1 SSTORE POP POP POP POP POP POP JUMP JUMPDEST PUSH0 DUP3 PUSH20 0xFFFFFFFFFFFFFFFFFFFFFFFFFFFFFFFFFFFFFFFF AND DUP3 PUSH1 0x40 MLOAD PUSH2 0x1FA2 SWAP1 PUSH2 0x2FB0 JUMP JUMPDEST PUSH0 PUSH1 0x40 MLOAD DUP1 DUP4 SUB DUP2 DUP6 DUP8 GAS CALL SWAP3 POP POP POP RETURNDATASIZE DUP1 PUSH0 DUP2 EQ PUSH2 0x1FDC JUMPI PUSH1 0x40 MLOAD SWAP2 POP PUSH1 0x1F NOT PUSH1 0x3F RETURNDATASIZE ADD AND DUP3 ADD PUSH1 0x40 MSTORE RETURNDATASIZE DUP3 MSTORE RETURNDATASIZE PUSH0 PUSH1 0x20 DUP5 ADD RETURNDATACOPY PUSH2 0x1FE1 JUMP JUMPDEST PUSH1 0x60 SWAP2 POP JUMPDEST POP POP SWAP1 POP DUP1 PUSH2 0x2025 JUMPI PUSH1 0x40 MLOAD PUSH32 0x8C379A000000000000000000000000000000000000000000000000000000000 DUP2 MSTORE PUSH1 0x4 ADD PUSH2 0x201C SWAP1 PUSH2 0x3034 JUMP JUMPDEST PUSH1 0x40 MLOAD DUP1 SWAP2 SUB SWAP1 REVERT JUMPDEST POP POP POP JUMP JUMPDEST PUSH0 PUSH1 0x6 PUSH2 0x2037 DUP5 DUP5 PUSH2 0x14CA JUMP JUMPDEST PUSH2 0xFFFF AND PUSH2 0x240 DUP2 LT PUSH2 0x204D JUMPI PUSH2 0x204C PUSH2 0x27C9 JUMP JUMPDEST JUMPDEST PUSH1 0x2 MUL ADD SWAP1 POP SWAP3 SWAP2 POP POP JUMP JUMPDEST PUSH0 DUP2 PUSH20 0xFFFFFFFFFFFFFFFFFFFFFFFFFFFFFFFFFFFFFFFF AND DUP4 PUSH0 ADD MLOAD PUSH20 0xFFFFFFFFFFFFFFFFFFFFFFFFFFFFFFFFFFFFFFFF AND SUB PUSH2 0x2098 JUMPI PUSH0 SWAP1 POP PUSH2 0x20F4 JUMP JUMPDEST PUSH0 DUP4 PUSH1 0x20 ADD MLOAD SUB PUSH2 0x20C4 JUMPI PUSH1 0x9 PUSH1 0xA PUSH2 0x20B1 SWAP2 SWAP1 PUSH2 0x2D44 JUMP JUMPDEST PUSH1 0x1 PUSH2 0x20BD SWAP2 SWAP1 PUSH2 0x2A93 JUMP JUMPDEST SWAP1 POP PUSH2 0x20F4 JUMP JUMPDEST PUSH1 0x64 PUSH1 0x2 SLOAD DUP5 PUSH1 0x20 ADD MLOAD PUSH2 0x20D8 SWAP2 SWAP1 PUSH2 0x2A93 JUMP JUMPDEST PUSH2 0x20E2 SWAP2 SWAP1 PUSH2 0x2B01 JUMP JUMPDEST DUP4 PUSH1 0x20 ADD MLOAD PUSH2 0x20F1 SWAP2 SWAP1 PUSH2 0x2DFF JUMP JUMPDEST SWAP1 POP JUMPDEST SWAP3 SWAP2 POP POP JUMP JUMPDEST PUSH1 0x40 MLOAD DUP1 PUSH2 0x4800 ADD PUSH1 0x40 MSTORE DUP1 PUSH2 0x240 SWAP1 JUMPDEST PUSH2 0x2113 PUSH2 0x214D JUMP JUMPDEST DUP2 MSTORE PUSH1 0x20 ADD SWAP1 PUSH1 0x1 SWAP1 SUB SWAP1 DUP2 PUSH2 0x210B JUMPI SWAP1 POP POP SWAP1 JUMP JUMPDEST PUSH1 0x40 MLOAD DUP1 PUSH2 0x4800 ADD PUSH1 0x40 MSTORE DUP1 PUSH2 0x240 SWAP1 PUSH1 0x20 DUP3 MUL DUP1 CALLDATASIZE DUP4 CALLDATACOPY DUP1 DUP3 ADD SWAP2 POP POP SWAP1 POP POP SWAP1 JUMP JUMPDEST PUSH1 0x40 MLOAD DUP1 PUSH1 0x40 ADD PUSH1 0x40 MSTORE DUP1 PUSH0 PUSH20 0xFFFFFFFFFFFFFFFFFFFFFFFFFFFFFFFFFFFFFFFF AND DUP2 MSTORE PUSH1 0x20 ADD PUSH0 DUP2 MSTORE POP SWAP1 JUMP JUMPDEST PUSH0 DUP1 REVERT JUMPDEST PUSH0 DUP1 REVERT JUMPDEST PUSH0 DUP1 REVERT JUMPDEST PUSH0 DUP1 REVERT JUMPDEST PUSH0 DUP1 REVERT JUMPDEST PUSH0 DUP1 DUP4 PUSH1 0x1F DUP5 ADD SLT PUSH2 0x21A4 JUMPI PUSH2 0x21A3 PUSH2 0x2183 JUMP JUMPDEST JUMPDEST DUP3 CALLDATALOAD SWAP1 POP PUSH8 0xFFFFFFFFFFFFFFFF DUP2 GT ISZERO PUSH2 0x21C1 JUMPI PUSH2 0x21C0 PUSH2 0x2187 JUMP JUMPDEST JUMPDEST PUSH1 0x20 DUP4 ADD SWAP2 POP DUP4 PUSH1 0x60 DUP3 MUL DUP4 ADD GT ISZERO PUSH2 0x21DD JUMPI PUSH2 0x21DC PUSH2 0x218B JUMP JUMPDEST JUMPDEST SWAP3 POP SWAP3 SWAP1 POP JUMP JUMPDEST PUSH0 DUP1 PUSH1 0x20 DUP4 DUP6 SUB SLT ISZERO PUSH2 0x21FA JUMPI PUSH2 0x21F9 PUSH2 0x217B JUMP JUMPDEST JUMPDEST PUSH0 DUP4 ADD CALLDATALOAD PUSH8 0xFFFFFFFFFFFFFFFF DUP2 GT ISZERO PUSH2 0x2217 JUMPI PUSH2 0x2216 PUSH2 0x217F JUMP JUMPDEST JUMPDEST PUSH2 0x2223 DUP6 DUP3 DUP7 ADD PUSH2 0x218F JUMP JUMPDEST SWAP3 POP SWAP3 POP POP SWAP3 POP SWAP3 SWAP1 POP JUMP JUMPDEST PUSH0 PUSH1 0xFF DUP3 AND SWAP1 POP SWAP2 SWAP1 POP JUMP JUMPDEST PUSH2 0x2244 DUP2 PUSH2 0x222F JUMP JUMPDEST DUP2 EQ PUSH2 0x224E JUMPI PUSH0 DUP1 REVERT JUMPDEST POP JUMP JUMPDEST PUSH0 DUP2 CALLDATALOAD SWAP1 POP PUSH2 0x225F DUP2 PUSH2 0x223B JUMP JUMPDEST SWAP3 SWAP2 POP POP JUMP JUMPDEST PUSH0 DUP1 PUSH1 0x40 DUP4 DUP6 SUB SLT ISZERO PUSH2 0x227B JUMPI PUSH2 0x227A PUSH2 0x217B JUMP JUMPDEST JUMPDEST PUSH0 PUSH2 0x2288 DUP6 DUP3 DUP7 ADD PUSH2 0x2251 JUMP JUMPDEST SWAP3 POP POP PUSH1 0x20 PUSH2 0x2299 DUP6 DUP3 DUP7 ADD PUSH2 0x2251 JUMP JUMPDEST SWAP2 POP POP SWAP3 POP SWAP3 SWAP1 POP JUMP JUMPDEST PUSH0 PUSH20 0xFFFFFFFFFFFFFFFFFFFFFFFFFFFFFFFFFFFFFFFF DUP3 AND SWAP1 POP SWAP2 SWAP1 POP JUMP JUMPDEST PUSH0 PUSH2 0x22CC DUP3 PUSH2 0x22A3 JUMP JUMPDEST SWAP1 POP SWAP2 SWAP1 POP JUMP JUMPDEST PUSH2 0x22DC DUP2 PUSH2 0x22C2 JUMP JUMPDEST DUP3 MSTORE POP POP JUMP JUMPDEST PUSH0 PUSH1 0x20 DUP3 ADD SWAP1 POP PUSH2 0x22F5 PUSH0 DUP4 ADD DUP5 PUSH2 0x22D3 JUMP JUMPDEST SWAP3 SWAP2 POP POP JUMP JUMPDEST PUSH0 DUP2 SWAP1 POP SWAP2 SWAP1 POP JUMP JUMPDEST PUSH2 0x230D DUP2 PUSH2 0x22FB JUMP JUMPDEST DUP3 MSTORE POP POP JUMP JUMPDEST PUSH0 PUSH1 0x20 DUP3 ADD SWAP1 POP PUSH2 0x2326 PUSH0 DUP4 ADD DUP5 PUSH2 0x2304 JUMP JUMPDEST SWAP3 SWAP2 POP POP JUMP JUMPDEST PUSH2 0x2335 DUP2 PUSH2 0x22C2 JUMP JUMPDEST DUP2 EQ PUSH2 0x233F JUMPI PUSH0 DUP1 REVERT JUMPDEST POP JUMP JUMPDEST PUSH0 DUP2 CALLDATALOAD SWAP1 POP PUSH2 0x2350 DUP2 PUSH2 0x232C JUMP JUMPDEST SWAP3 SWAP2 POP POP JUMP JUMPDEST PUSH0 PUSH1 0x20 DUP3 DUP5 SUB SLT ISZERO PUSH2 0x236B JUMPI PUSH2 0x236A PUSH2 0x217B JUMP JUMPDEST JUMPDEST PUSH0 PUSH2 0x2378 DUP5 DUP3 DUP6 ADD PUSH2 0x2342 JUMP JUMPDEST SWAP2 POP POP SWAP3 SWAP2 POP POP JUMP JUMPDEST PUSH0 DUP2 ISZERO ISZERO SWAP1 POP SWAP2 SWAP1 POP JUMP JUMPDEST PUSH2 0x2395 DUP2 PUSH2 0x2381 JUMP JUMPDEST DUP3 MSTORE POP POP JUMP JUMPDEST PUSH0 PUSH1 0x20 DUP3 ADD SWAP1 POP PUSH2 0x23AE PUSH0 DUP4 ADD DUP5 PUSH2 0x238C JUMP JUMPDEST SWAP3 SWAP2 POP POP JUMP JUMPDEST PUSH0 DUP2 SWAP1 POP SWAP2 SWAP1 POP JUMP JUMPDEST PUSH0 PUSH2 0x23D7 PUSH2 0x23D2 PUSH2 0x23CD DUP5 PUSH2 0x22A3 JUMP JUMPDEST PUSH2 0x23B4 JUMP JUMPDEST PUSH2 0x22A3 JUMP JUMPDEST SWAP1 POP SWAP2 SWAP1 POP JUMP JUMPDEST PUSH0 PUSH2 0x23E8 DUP3 PUSH2 0x23BD JUMP JUMPDEST SWAP1 POP SWAP2 SWAP1 POP JUMP JUMPDEST PUSH0 PUSH2 0x23F9 DUP3 PUSH2 0x23DE JUMP JUMPDEST SWAP1 POP SWAP2 SWAP1 POP JUMP JUMPDEST PUSH2 0x2409 DUP2 PUSH2 0x23EF JUMP JUMPDEST DUP3 MSTORE POP POP JUMP JUMPDEST PUSH0 PUSH1 0x20 DUP3 ADD SWAP1 POP PUSH2 0x2422 PUSH0 DUP4 ADD DUP5 PUSH2 0x2400 JUMP JUMPDEST SWAP3 SWAP2 POP POP JUMP JUMPDEST PUSH0 PUSH2 0x240 SWAP1 POP SWAP2 SWAP1 POP JUMP JUMPDEST PUSH0 DUP2 SWAP1 POP SWAP3 SWAP2 POP POP JUMP JUMPDEST PUSH0 DUP2 SWAP1 POP SWAP2 SWAP1 POP JUMP JUMPDEST PUSH2 0x244F DUP2 PUSH2 0x22C2 JUMP JUMPDEST DUP3 MSTORE POP POP JUMP JUMPDEST PUSH2 0x245E DUP2 PUSH2 0x22FB JUMP JUMPDEST DUP3 MSTORE POP POP JUMP JUMPDEST PUSH1 0x40 DUP3 ADD PUSH0 DUP3 ADD MLOAD PUSH2 0x2478 PUSH0 DUP6 ADD DUP3 PUSH2 0x2446 JUMP JUMPDEST POP PUSH1 0x20 DUP3 ADD MLOAD PUSH2 0x248B PUSH1 0x20 DUP6 ADD DUP3 PUSH2 0x2455 JUMP JUMPDEST POP POP POP POP JUMP JUMPDEST PUSH0 PUSH2 0x249C DUP4 DUP4 PUSH2 0x2464 JUMP JUMPDEST PUSH1 0x40 DUP4 ADD SWAP1 POP SWAP3 SWAP2 POP POP JUMP JUMPDEST PUSH0 PUSH1 0x20 DUP3 ADD SWAP1 POP SWAP2 SWAP1 POP JUMP JUMPDEST PUSH2 0x24BD DUP2 PUSH2 0x2428 JUMP JUMPDEST PUSH2 0x24C7 DUP2 DUP5 PUSH2 0x2433 JUMP JUMPDEST SWAP3 POP PUSH2 0x24D2 DUP3 PUSH2 0x243D JUMP JUMPDEST DUP1 PUSH0 JUMPDEST DUP4 DUP2 LT ISZERO PUSH2 0x2502 JUMPI DUP2 MLOAD PUSH2 0x24E9 DUP8 DUP3 PUSH2 0x2491 JUMP JUMPDEST SWAP7 POP PUSH2 0x24F4 DUP4 PUSH2 0x24A8 JUMP JUMPDEST SWAP3 POP POP PUSH1 0x1 DUP2 ADD SWAP1 POP PUSH2 0x24D5 JUMP JUMPDEST POP POP POP POP POP POP JUMP JUMPDEST PUSH0 PUSH2 0x9000 DUP3 ADD SWAP1 POP PUSH2 0x251E PUSH0 DUP4 ADD DUP5 PUSH2 0x24B4 JUMP JUMPDEST SWAP3 SWAP2 POP POP JUMP JUMPDEST PUSH0 DUP1 PUSH0 PUSH1 0x40 DUP5 DUP7 SUB SLT ISZERO PUSH2 0x253B JUMPI PUSH2 0x253A PUSH2 0x217B JUMP JUMPDEST JUMPDEST PUSH0 DUP5 ADD CALLDATALOAD PUSH8 0xFFFFFFFFFFFFFFFF DUP2 GT ISZERO PUSH2 0x2558 JUMPI PUSH2 0x2557 PUSH2 0x217F JUMP JUMPDEST JUMPDEST PUSH2 0x2564 DUP7 DUP3 DUP8 ADD PUSH2 0x218F JUMP JUMPDEST SWAP4 POP SWAP4 POP POP PUSH1 0x20 PUSH2 0x2577 DUP7 DUP3 DUP8 ADD PUSH2 0x2342 JUMP JUMPDEST SWAP2 POP POP SWAP3 POP SWAP3 POP SWAP3 JUMP JUMPDEST PUSH0 PUSH2 0xFFFF DUP3 AND SWAP1 POP SWAP2 SWAP1 POP JUMP JUMPDEST PUSH2 0x2597 DUP2 PUSH2 0x2581 JUMP JUMPDEST DUP3 MSTORE POP POP JUMP JUMPDEST PUSH0 PUSH1 0x20 DUP3 ADD SWAP1 POP PUSH2 0x25B0 PUSH0 DUP4 ADD DUP5 PUSH2 0x258E JUMP JUMPDEST SWAP3 SWAP2 POP POP JUMP JUMPDEST PUSH0 PUSH1 0x40 DUP3 ADD SWAP1 POP PUSH2 0x25C9 PUSH0 DUP4 ADD DUP6 PUSH2 0x258E JUMP JUMPDEST PUSH2 0x25D6 PUSH1 0x20 DUP4 ADD DUP5 PUSH2 0x258E JUMP JUMPDEST SWAP4 SWAP3 POP POP POP JUMP JUMPDEST PUSH0 PUSH2 0x25E7 DUP3 PUSH2 0x23DE JUMP JUMPDEST SWAP1 POP SWAP2 SWAP1 POP JUMP JUMPDEST PUSH2 0x25F7 DUP2 PUSH2 0x25DD JUMP JUMPDEST DUP3 MSTORE POP POP JUMP JUMPDEST PUSH0 PUSH1 0x20 DUP3 ADD SWAP1 POP PUSH2 0x2610 PUSH0 DUP4 ADD DUP5 PUSH2 0x25EE JUMP JUMPDEST SWAP3 SWAP2 POP POP JUMP JUMPDEST PUSH0 PUSH2 0x240 SWAP1 POP SWAP2 SWAP1 POP JUMP JUMPDEST PUSH0 DUP2 SWAP1 POP SWAP3 SWAP2 POP POP JUMP JUMPDEST PUSH0 DUP2 SWAP1 POP SWAP2 SWAP1 POP JUMP JUMPDEST PUSH0 PUSH2 0x263F DUP4 DUP4 PUSH2 0x2446 JUMP JUMPDEST PUSH1 0x20 DUP4 ADD SWAP1 POP SWAP3 SWAP2 POP POP JUMP JUMPDEST PUSH0 PUSH1 0x20 DUP3 ADD SWAP1 POP SWAP2 SWAP1 POP JUMP JUMPDEST PUSH2 0x2660 DUP2 PUSH2 0x2616 JUMP JUMPDEST PUSH2 0x266A DUP2 DUP5 PUSH2 0x2621 JUMP JUMPDEST SWAP3 POP PUSH2 0x2675 DUP3 PUSH2 0x262B JUMP JUMPDEST DUP1 PUSH0 JUMPDEST DUP4 DUP2 LT ISZERO PUSH2 0x26A5 JUMPI DUP2 MLOAD PUSH2 0x268C DUP8 DUP3 PUSH2 0x2634 JUMP JUMPDEST SWAP7 POP PUSH2 0x2697 DUP4 PUSH2 0x264B JUMP JUMPDEST SWAP3 POP POP PUSH1 0x1 DUP2 ADD SWAP1 POP PUSH2 0x2678 JUMP JUMPDEST POP POP POP POP POP POP JUMP JUMPDEST PUSH0 PUSH2 0x4800 DUP3 ADD SWAP1 POP PUSH2 0x26C1 PUSH0 DUP4 ADD DUP5 PUSH2 0x2657 JUMP JUMPDEST SWAP3 SWAP2 POP POP JUMP JUMPDEST PUSH0 DUP3 DUP3 MSTORE PUSH1 0x20 DUP3 ADD SWAP1 POP SWAP3 SWAP2 POP POP JUMP JUMPDEST PUSH32 0x67616D65206E6F74207374617274656400000000000000000000000000000000 PUSH0 DUP3 ADD MSTORE POP JUMP JUMPDEST PUSH0 PUSH2 0x270B PUSH1 0x10 DUP4 PUSH2 0x26C7 JUMP JUMPDEST SWAP2 POP PUSH2 0x2716 DUP3 PUSH2 0x26D7 JUMP JUMPDEST PUSH1 0x20 DUP3 ADD SWAP1 POP SWAP2 SWAP1 POP JUMP JUMPDEST PUSH0 PUSH1 0x20 DUP3 ADD SWAP1 POP DUP2 DUP2 SUB PUSH0 DUP4 ADD MSTORE PUSH2 0x2738 DUP2 PUSH2 0x26FF JUMP JUMPDEST SWAP1 POP SWAP2 SWAP1 POP JUMP JUMPDEST PUSH0 PUSH1 0x60 DUP3 ADD SWAP1 POP PUSH2 0x2752 PUSH0 DUP4 ADD DUP7 PUSH2 0x22D3 JUMP JUMPDEST PUSH2 0x275F PUSH1 0x20 DUP4 ADD DUP6 PUSH2 0x22D3 JUMP JUMPDEST PUSH2 0x276C PUSH1 0x40 DUP4 ADD DUP5 PUSH2 0x2304 JUMP JUMPDEST SWAP5 SWAP4 POP POP POP POP JUMP JUMPDEST PUSH2 0x277D DUP2 PUSH2 0x2381 JUMP JUMPDEST DUP2 EQ PUSH2 0x2787 JUMPI PUSH0 DUP1 REVERT JUMPDEST POP JUMP JUMPDEST PUSH0 DUP2 MLOAD SWAP1 POP PUSH2 0x2798 DUP2 PUSH2 0x2774 JUMP JUMPDEST SWAP3 SWAP2 POP POP JUMP JUMPDEST PUSH0 PUSH1 0x20 DUP3 DUP5 SUB SLT ISZERO PUSH2 0x27B3 JUMPI PUSH2 0x27B2 PUSH2 0x217B JUMP JUMPDEST JUMPDEST PUSH0 PUSH2 0x27C0 DUP5 DUP3 DUP6 ADD PUSH2 0x278A JUMP JUMPDEST SWAP2 POP POP SWAP3 SWAP2 POP POP JUMP JUMPDEST PUSH32 0x4E487B7100000000000000000000000000000000000000000000000000000000 PUSH0 MSTORE PUSH1 0x32 PUSH1 0x4 MSTORE PUSH1 0x24 PUSH0 REVERT JUMPDEST PUSH32 0x706F736974696F6E2078206F7574206F6620626F756E64730000000000000000 PUSH0 DUP3 ADD MSTORE POP JUMP JUMPDEST PUSH0 PUSH2 0x282A PUSH1 0x18 DUP4 PUSH2 0x26C7 JUMP JUMPDEST SWAP2 POP PUSH2 0x2835 DUP3 PUSH2 0x27F6 JUMP JUMPDEST PUSH1 0x20 DUP3 ADD SWAP1 POP SWAP2 SWAP1 POP JUMP JUMPDEST PUSH0 PUSH1 0x20 DUP3 ADD SWAP1 POP DUP2 DUP2 SUB PUSH0 DUP4 ADD MSTORE PUSH2 0x2857 DUP2 PUSH2 0x281E JUMP JUMPDEST SWAP1 POP SWAP2 SWAP1 POP JUMP JUMPDEST PUSH32 0x706F736974696F6E2079206F7574206F6620626F756E64730000000000000000 PUSH0 DUP3 ADD MSTORE POP JUMP JUMPDEST PUSH0 PUSH2 0x2892 PUSH1 0x18 DUP4 PUSH2 0x26C7 JUMP JUMPDEST SWAP2 POP PUSH2 0x289D DUP3 PUSH2 0x285E JUMP JUMPDEST PUSH1 0x20 DUP3 ADD SWAP1 POP SWAP2 SWAP1 POP JUMP JUMPDEST PUSH0 PUSH1 0x20 DUP3 ADD SWAP1 POP DUP2 DUP2 SUB PUSH0 DUP4 ADD MSTORE PUSH2 0x28BF DUP2 PUSH2 0x2886 JUMP JUMPDEST SWAP1 POP SWAP2 SWAP1 POP JUMP JUMPDEST PUSH32 0x6F6E6C79206F776E657200000000000000000000000000000000000000000000 PUSH0 DUP3 ADD MSTORE POP JUMP JUMPDEST PUSH0 PUSH2 0x28FA PUSH1 0xA DUP4 PUSH2 0x26C7 JUMP JUMPDEST SWAP2 POP PUSH2 0x2905 DUP3 PUSH2 0x28C6 JUMP JUMPDEST PUSH1 0x20 DUP3 ADD SWAP1 POP SWAP2 SWAP1 POP JUMP JUMPDEST PUSH0 PUSH1 0x20 DUP3 ADD SWAP1 POP DUP2 DUP2 SUB PUSH0 DUP4 ADD MSTORE PUSH2 0x2927 DUP2 PUSH2 0x28EE JUMP JUMPDEST SWAP1 POP SWAP2 SWAP1 POP JUMP JUMPDEST PUSH32 0x61756374696F6E207374696C6C20636F6E74696E756500000000000000000000 PUSH0 DUP3 ADD MSTORE POP JUMP JUMPDEST PUSH0 PUSH2 0x2962 PUSH1 0x16 DUP4 PUSH2 0x26C7 JUMP JUMPDEST SWAP2 POP PUSH2 0x296D DUP3 PUSH2 0x292E JUMP JUMPDEST PUSH1 0x20 DUP3 ADD SWAP1 POP SWAP2 SWAP1 POP JUMP JUMPDEST PUSH0 PUSH1 0x20 DUP3 ADD SWAP1 POP DUP2 DUP2 SUB PUSH0 DUP4 ADD MSTORE PUSH2 0x298F DUP2 PUSH2 0x2956 JUMP JUMPDEST SWAP1 POP SWAP2 SWAP1 POP JUMP JUMPDEST PUSH32 0x616C726561647920636C61696D65640000000000000000000000000000000000 PUSH0 DUP3 ADD MSTORE POP JUMP JUMPDEST PUSH0 PUSH2 0x29CA PUSH1 0xF DUP4 PUSH2 0x26C7 JUMP JUMPDEST SWAP2 POP PUSH2 0x29D5 DUP3 PUSH2 0x2996 JUMP JUMPDEST PUSH1 0x20 DUP3 ADD SWAP1 POP SWAP2 SWAP1 POP JUMP JUMPDEST PUSH0 PUSH1 0x20 DUP3 ADD SWAP1 POP DUP2 DUP2 SUB PUSH0 DUP4 ADD MSTORE PUSH2 0x29F7 DUP2 PUSH2 0x29BE JUMP JUMPDEST SWAP1 POP SWAP2 SWAP1 POP JUMP JUMPDEST PUSH32 0x6163636F756E7420736861726520697320300000000000000000000000000000 PUSH0 DUP3 ADD MSTORE POP JUMP JUMPDEST PUSH0 PUSH2 0x2A32 PUSH1 0x12 DUP4 PUSH2 0x26C7 JUMP JUMPDEST SWAP2 POP PUSH2 0x2A3D DUP3 PUSH2 0x29FE JUMP JUMPDEST PUSH1 0x20 DUP3 ADD SWAP1 POP SWAP2 SWAP1 POP JUMP JUMPDEST PUSH0 PUSH1 0x20 DUP3 ADD SWAP1 POP DUP2 DUP2 SUB PUSH0 DUP4 ADD MSTORE PUSH2 0x2A5F DUP2 PUSH2 0x2A26 JUMP JUMPDEST SWAP1 POP SWAP2 SWAP1 POP JUMP JUMPDEST PUSH32 0x4E487B7100000000000000000000000000000000000000000000000000000000 PUSH0 MSTORE PUSH1 0x11 PUSH1 0x4 MSTORE PUSH1 0x24 PUSH0 REVERT JUMPDEST PUSH0 PUSH2 0x2A9D DUP3 PUSH2 0x22FB JUMP JUMPDEST SWAP2 POP PUSH2 0x2AA8 DUP4 PUSH2 0x22FB JUMP JUMPDEST SWAP3 POP DUP3 DUP3 MUL PUSH2 0x2AB6 DUP2 PUSH2 0x22FB JUMP JUMPDEST SWAP2 POP DUP3 DUP3 DIV DUP5 EQ DUP4 ISZERO OR PUSH2 0x2ACD JUMPI PUSH2 0x2ACC PUSH2 0x2A66 JUMP JUMPDEST JUMPDEST POP SWAP3 SWAP2 POP POP JUMP JUMPDEST PUSH32 0x4E487B7100000000000000000000000000000000000000000000000000000000 PUSH0 MSTORE PUSH1 0x12 PUSH1 0x4 MSTORE PUSH1 0x24 PUSH0 REVERT JUMPDEST PUSH0 PUSH2 0x2B0B DUP3 PUSH2 0x22FB JUMP JUMPDEST SWAP2 POP PUSH2 0x2B16 DUP4 PUSH2 0x22FB JUMP JUMPDEST SWAP3 POP DUP3 PUSH2 0x2B26 JUMPI PUSH2 0x2B25 PUSH2 0x2AD4 JUMP JUMPDEST JUMPDEST DUP3 DUP3 DIV SWAP1 POP SWAP3 SWAP2 POP POP JUMP JUMPDEST PUSH0 PUSH1 0x40 DUP3 ADD SWAP1 POP PUSH2 0x2B44 PUSH0 DUP4 ADD DUP6 PUSH2 0x22D3 JUMP JUMPDEST PUSH2 0x2B51 PUSH1 0x20 DUP4 ADD DUP5 PUSH2 0x2304 JUMP JUMPDEST SWAP4 SWAP3 POP POP POP JUMP JUMPDEST PUSH32 0x6E667420616C726561647920636C61696D656400000000000000000000000000 PUSH0 DUP3 ADD MSTORE POP JUMP JUMPDEST PUSH0 PUSH2 0x2B8C PUSH1 0x13 DUP4 PUSH2 0x26C7 JUMP JUMPDEST SWAP2 POP PUSH2 0x2B97 DUP3 PUSH2 0x2B58 JUMP JUMPDEST PUSH1 0x20 DUP3 ADD SWAP1 POP SWAP2 SWAP1 POP JUMP JUMPDEST PUSH0 PUSH1 0x20 DUP3 ADD SWAP1 POP DUP2 DUP2 SUB PUSH0 DUP4 ADD MSTORE PUSH2 0x2BB9 DUP2 PUSH2 0x2B80 JUMP JUMPDEST SWAP1 POP SWAP2 SWAP1 POP JUMP JUMPDEST PUSH2 0x2BC9 DUP2 PUSH2 0x22FB JUMP JUMPDEST DUP2 EQ PUSH2 0x2BD3 JUMPI PUSH0 DUP1 REVERT JUMPDEST POP JUMP JUMPDEST PUSH0 DUP2 MLOAD SWAP1 POP PUSH2 0x2BE4 DUP2 PUSH2 0x2BC0 JUMP JUMPDEST SWAP3 SWAP2 POP POP JUMP JUMPDEST PUSH0 PUSH1 0x20 DUP3 DUP5 SUB SLT ISZERO PUSH2 0x2BFF JUMPI PUSH2 0x2BFE PUSH2 0x217B JUMP JUMPDEST JUMPDEST PUSH0 PUSH2 0x2C0C DUP5 DUP3 DUP6 ADD PUSH2 0x2BD6 JUMP JUMPDEST SWAP2 POP POP SWAP3 SWAP2 POP POP JUMP JUMPDEST PUSH0 DUP2 PUSH1 0x1 SHR SWAP1 POP SWAP2 SWAP1 POP JUMP JUMPDEST PUSH0 DUP1 DUP3 SWAP2 POP DUP4 SWAP1 POP JUMPDEST PUSH1 0x1 DUP6 GT ISZERO PUSH2 0x2C6A JUMPI DUP1 DUP7 DIV DUP2 GT ISZERO PUSH2 0x2C46 JUMPI PUSH2 0x2C45 PUSH2 0x2A66 JUMP JUMPDEST JUMPDEST PUSH1 0x1 DUP6 AND ISZERO PUSH2 0x2C55 JUMPI DUP1 DUP3 MUL SWAP2 POP JUMPDEST DUP1 DUP2 MUL SWAP1 POP PUSH2 0x2C63 DUP6 PUSH2 0x2C15 JUMP JUMPDEST SWAP5 POP PUSH2 0x2C2A JUMP JUMPDEST SWAP5 POP SWAP5 SWAP3 POP POP POP JUMP JUMPDEST PUSH0 DUP3 PUSH2 0x2C82 JUMPI PUSH1 0x1 SWAP1 POP PUSH2 0x2D3D JUMP JUMPDEST DUP2 PUSH2 0x2C8F JUMPI PUSH0 SWAP1 POP PUSH2 0x2D3D JUMP JUMPDEST DUP2 PUSH1 0x1 DUP2 EQ PUSH2 0x2CA5 JUMPI PUSH1 0x2 DUP2 EQ PUSH2 0x2CAF JUMPI PUSH2 0x2CDE JUMP JUMPDEST PUSH1 0x1 SWAP2 POP POP PUSH2 0x2D3D JUMP JUMPDEST PUSH1 0xFF DUP5 GT ISZERO PUSH2 0x2CC1 JUMPI PUSH2 0x2CC0 PUSH2 0x2A66 JUMP JUMPDEST JUMPDEST DUP4 PUSH1 0x2 EXP SWAP2 POP DUP5 DUP3 GT ISZERO PUSH2 0x2CD8 JUMPI PUSH2 0x2CD7 PUSH2 0x2A66 JUMP JUMPDEST JUMPDEST POP PUSH2 0x2D3D JUMP JUMPDEST POP PUSH1 0x20 DUP4 LT PUSH2 0x133 DUP4 LT AND PUSH1 0x4E DUP5 LT PUSH1 0xB DUP5 LT AND OR ISZERO PUSH2 0x2D13 JUMPI DUP3 DUP3 EXP SWAP1 POP DUP4 DUP2 GT ISZERO PUSH2 0x2D0E JUMPI PUSH2 0x2D0D PUSH2 0x2A66 JUMP JUMPDEST JUMPDEST PUSH2 0x2D3D JUMP JUMPDEST PUSH2 0x2D20 DUP5 DUP5 DUP5 PUSH1 0x1 PUSH2 0x2C21 JUMP JUMPDEST SWAP3 POP SWAP1 POP DUP2 DUP5 DIV DUP2 GT ISZERO PUSH2 0x2D37 JUMPI PUSH2 0x2D36 PUSH2 0x2A66 JUMP JUMPDEST JUMPDEST DUP2 DUP2 MUL SWAP1 POP JUMPDEST SWAP4 SWAP3 POP POP POP JUMP JUMPDEST PUSH0 PUSH2 0x2D4E DUP3 PUSH2 0x22FB JUMP JUMPDEST SWAP2 POP PUSH2 0x2D59 DUP4 PUSH2 0x22FB JUMP JUMPDEST SWAP3 POP PUSH2 0x2D86 PUSH32 0xFFFFFFFFFFFFFFFFFFFFFFFFFFFFFFFFFFFFFFFFFFFFFFFFFFFFFFFFFFFFFFFF DUP5 DUP5 PUSH2 0x2C73 JUMP JUMPDEST SWAP1 POP SWAP3 SWAP2 POP POP JUMP JUMPDEST PUSH0 PUSH2 0x2D98 DUP3 PUSH2 0x2581 JUMP JUMPDEST SWAP2 POP PUSH2 0x2DA3 DUP4 PUSH2 0x2581 JUMP JUMPDEST SWAP3 POP DUP3 DUP3 MUL PUSH2 0x2DB1 DUP2 PUSH2 0x2581 JUMP JUMPDEST SWAP2 POP DUP1 DUP3 EQ PUSH2 0x2DC3 JUMPI PUSH2 0x2DC2 PUSH2 0x2A66 JUMP JUMPDEST JUMPDEST POP SWAP3 SWAP2 POP POP JUMP JUMPDEST PUSH0 PUSH2 0x2DD4 DUP3 PUSH2 0x2581 JUMP JUMPDEST SWAP2 POP PUSH2 0x2DDF DUP4 PUSH2 0x2581 JUMP JUMPDEST SWAP3 POP DUP3 DUP3 ADD SWAP1 POP PUSH2 0xFFFF DUP2 GT ISZERO PUSH2 0x2DF9 JUMPI PUSH2 0x2DF8 PUSH2 0x2A66 JUMP JUMPDEST JUMPDEST SWAP3 SWAP2 POP POP JUMP JUMPDEST PUSH0 PUSH2 0x2E09 DUP3 PUSH2 0x22FB JUMP JUMPDEST SWAP2 POP PUSH2 0x2E14 DUP4 PUSH2 0x22FB JUMP JUMPDEST SWAP3 POP DUP3 DUP3 ADD SWAP1 POP DUP1 DUP3 GT ISZERO PUSH2 0x2E2C JUMPI PUSH2 0x2E2B PUSH2 0x2A66 JUMP JUMPDEST JUMPDEST SWAP3 SWAP2 POP POP JUMP JUMPDEST PUSH32 0x62696420697320746F6F206C6F77000000000000000000000000000000000000 PUSH0 DUP3 ADD MSTORE POP JUMP JUMPDEST PUSH0 PUSH2 0x2E66 PUSH1 0xE DUP4 PUSH2 0x26C7 JUMP JUMPDEST SWAP2 POP PUSH2 0x2E71 DUP3 PUSH2 0x2E32 JUMP JUMPDEST PUSH1 0x20 DUP3 ADD SWAP1 POP SWAP2 SWAP1 POP JUMP JUMPDEST PUSH0 PUSH1 0x20 DUP3 ADD SWAP1 POP DUP2 DUP2 SUB PUSH0 DUP4 ADD MSTORE PUSH2 0x2E93 DUP2 PUSH2 0x2E5A JUMP JUMPDEST SWAP1 POP SWAP2 SWAP1 POP JUMP JUMPDEST PUSH0 PUSH1 0x20 DUP3 DUP5 SUB SLT ISZERO PUSH2 0x2EAF JUMPI PUSH2 0x2EAE PUSH2 0x217B JUMP JUMPDEST JUMPDEST PUSH0 PUSH2 0x2EBC DUP5 DUP3 DUP6 ADD PUSH2 0x2251 JUMP JUMPDEST SWAP2 POP POP SWAP3 SWAP2 POP POP JUMP JUMPDEST PUSH0 PUSH2 0x2ECF DUP3 PUSH2 0x2581 JUMP JUMPDEST SWAP2 POP PUSH0 DUP3 SUB PUSH2 0x2EE1 JUMPI PUSH2 0x2EE0 PUSH2 0x2A66 JUMP JUMPDEST JUMPDEST PUSH1 0x1 DUP3 SUB SWAP1 POP SWAP2 SWAP1 POP JUMP JUMPDEST PUSH0 PUSH2 0x2EF6 DUP3 PUSH2 0x22FB JUMP JUMPDEST SWAP2 POP PUSH32 0xFFFFFFFFFFFFFFFFFFFFFFFFFFFFFFFFFFFFFFFFFFFFFFFFFFFFFFFFFFFFFFFF DUP3 SUB PUSH2 0x2F28 JUMPI PUSH2 0x2F27 PUSH2 0x2A66 JUMP JUMPDEST JUMPDEST PUSH1 0x1 DUP3 ADD SWAP1 POP SWAP2 SWAP1 POP JUMP JUMPDEST PUSH0 PUSH2 0x2F3D DUP3 PUSH2 0x2581 JUMP JUMPDEST SWAP2 POP PUSH2 0xFFFF DUP3 SUB PUSH2 0x2F51 JUMPI PUSH2 0x2F50 PUSH2 0x2A66 JUMP JUMPDEST JUMPDEST PUSH1 0x1 DUP3 ADD SWAP1 POP SWAP2 SWAP1 POP JUMP JUMPDEST PUSH0 PUSH1 0x40 DUP3 ADD SWAP1 POP PUSH2 0x2F6F PUSH0 DUP4 ADD DUP6 PUSH2 0x258E JUMP JUMPDEST PUSH2 0x2F7C PUSH1 0x20 DUP4 ADD DUP5 PUSH2 0x2304 JUMP JUMPDEST SWAP4 SWAP3 POP POP POP JUMP JUMPDEST PUSH0 DUP2 SWAP1 POP SWAP3 SWAP2 POP POP JUMP JUMPDEST POP JUMP JUMPDEST PUSH0 PUSH2 0x2F9B PUSH0 DUP4 PUSH2 0x2F83 JUMP JUMPDEST SWAP2 POP PUSH2 0x2FA6 DUP3 PUSH2 0x2F8D JUMP JUMPDEST PUSH0 DUP3 ADD SWAP1 POP SWAP2 SWAP1 POP JUMP JUMPDEST PUSH0 PUSH2 0x2FBA DUP3 PUSH2 0x2F90 JUMP JUMPDEST SWAP2 POP DUP2 SWAP1 POP SWAP2 SWAP1 POP JUMP JUMPDEST PUSH32 0x73656E7420666565206572726F723A206574686572206973206E6F742073656E PUSH0 DUP3 ADD MSTORE PUSH32 0x7400000000000000000000000000000000000000000000000000000000000000 PUSH1 0x20 DUP3 ADD MSTORE POP JUMP JUMPDEST PUSH0 PUSH2 0x301E PUSH1 0x21 DUP4 PUSH2 0x26C7 JUMP JUMPDEST SWAP2 POP PUSH2 0x3029 DUP3 PUSH2 0x2FC4 JUMP JUMPDEST PUSH1 0x40 DUP3 ADD SWAP1 POP SWAP2 SWAP1 POP JUMP JUMPDEST PUSH0 PUSH1 0x20 DUP3 ADD SWAP1 POP DUP2 DUP2 SUB PUSH0 DUP4 ADD MSTORE PUSH2 0x304B DUP2 PUSH2 0x3012 JUMP JUMPDEST SWAP1 POP SWAP2 SWAP1 POP JUMP INVALID LOG2 PUSH5 0x6970667358 0x22 SLT KECCAK256 PUSH2 0xBAFE 0xDF 0x21 0xD9 DUP7 INVALID 0xBA 0x25 PUSH4 0x6890DC1B MULMOD 0x24 0x23 0x4C CODESIZE POP SWAP13 CALLER CALLDATASIZE 0xBF 0xB1 DUP6 0x4C 0xDA CALLVALUE BYTE 0xCB PUSH5 0x736F6C6343 STOP ADDMOD XOR STOP CALLER "
		},
		"gasEstimates": {
			"creation": {
				"codeDepositCost": "2484800",
				"executionCost": "infinite",
				"totalCost": "infinite"
			},
			"external": {
				"accountShare(address)": "3004",
				"auctionBidAddsTimer()": "370",
				"auctionBidStepPrecesion()": "457",
				"auctionBidStepShare()": "392",
				"auctionEndTime()": "2559",
				"bidAddress()": "2554",
				"bidEther()": "2536",
				"canvas()": "infinite",
				"chunkIndex(uint8,uint8)": "infinite",
				"chunkOverridePricePercent()": "2537",
				"chunkWriteAddsGameSeconds()": "2537",
				"chunksWritenCount()": "2516",
				"claim()": "infinite",
				"claimNft()": "infinite",
				"etherToClaimTotal()": "2580",
				"gameEndTime()": "2522",
				"getChunkOwner(uint8,uint8)": "infinite",
				"getChunks()": "infinite",
				"getChunksCount()": "infinite",
				"getChunksOwners()": "infinite",
				"isAuction()": "8994",
				"isAuctionEnd()": "4712",
				"isClaimed(address)": "2944",
				"isGameEnd()": "4622",
				"isNftClaimed()": "infinite",
				"isStarted()": "2515",
				"isWriteEnable()": "6833",
				"makeBid()": "infinite",
				"newBidEtherMin()": "infinite",
				"nft()": "infinite",
				"owner()": "2648",
				"ownerRenounce()": "27419",
				"setNft(address)": "29116",
				"setToken(address)": "29163",
				"start()": "infinite",
				"startChunkWritePrice()": "infinite",
				"token()": "infinite",
				"tokenToClaimTotal()": "2515",
				"transferOwnership(address)": "27014",
				"writeChunks((uint8,uint8,uint256)[])": "infinite",
				"writeChunksPrice((uint8,uint8,uint256)[])": "infinite",
				"writeChunksPriceFor((uint8,uint8,uint256)[],address)": "infinite"
			}
		},
		"methodIdentifiers": {
			"accountShare(address)": "a447a5c6",
			"auctionBidAddsTimer()": "c7e64a84",
			"auctionBidStepPrecesion()": "fe29124c",
			"auctionBidStepShare()": "7b5d4c23",
			"auctionEndTime()": "4b449cba",
			"bidAddress()": "2f57fbf0",
			"bidEther()": "c01a9745",
			"canvas()": "9b8e9b5e",
			"chunkIndex(uint8,uint8)": "b6672790",
			"chunkOverridePricePercent()": "a384e030",
			"chunkWriteAddsGameSeconds()": "5dfcc86a",
			"chunksWritenCount()": "10c91973",
			"claim()": "4e71d92d",
			"claimNft()": "5ae2afa4",
			"etherToClaimTotal()": "9561330a",
			"gameEndTime()": "44d9bc5f",
			"getChunkOwner(uint8,uint8)": "04e41824",
			"getChunks()": "67207738",
			"getChunksCount()": "eaa339b6",
			"getChunksOwners()": "ffe7507f",
			"isAuction()": "c17723f9",
			"isAuctionEnd()": "18916f9b",
			"isClaimed(address)": "8cc08025",
			"isGameEnd()": "a78deefa",
			"isNftClaimed()": "c7f21f39",
			"isStarted()": "544736e6",
			"isWriteEnable()": "f9c7894e",
			"makeBid()": "f30e3658",
			"newBidEtherMin()": "97d54cf7",
			"nft()": "47ccca02",
			"owner()": "8da5cb5b",
			"ownerRenounce()": "333a0072",
			"setNft(address)": "f3c13387",
			"setToken(address)": "144fa6d7",
			"start()": "be9a6555",
			"startChunkWritePrice()": "8703c017",
			"token()": "fc0c546a",
			"tokenToClaimTotal()": "a051078a",
			"transferOwnership(address)": "f2fde38b",
			"writeChunks((uint8,uint8,uint256)[])": "01767cdb",
			"writeChunksPrice((uint8,uint8,uint256)[])": "e4f8a422",
			"writeChunksPriceFor((uint8,uint8,uint256)[],address)": "7a50b787"
		}
	},
	"abi": [
		{
			"inputs": [
				{
					"internalType": "address",
					"name": "canvasAddress",
					"type": "address"
				}
			],
			"stateMutability": "nonpayable",
			"type": "constructor"
		},
		{
			"anonymous": false,
			"inputs": [],
			"name": "RenounceOwnership",
			"type": "event"
		},
		{
			"inputs": [
				{
					"internalType": "address",
					"name": "acc",
					"type": "address"
				}
			],
			"name": "accountShare",
			"outputs": [
				{
					"internalType": "uint16",
					"name": "",
					"type": "uint16"
				}
			],
			"stateMutability": "view",
			"type": "function"
		},
		{
			"inputs": [],
			"name": "auctionBidAddsTimer",
			"outputs": [
				{
					"internalType": "uint256",
					"name": "",
					"type": "uint256"
				}
			],
			"stateMutability": "view",
			"type": "function"
		},
		{
			"inputs": [],
			"name": "auctionBidStepPrecesion",
			"outputs": [
				{
					"internalType": "uint256",
					"name": "",
					"type": "uint256"
				}
			],
			"stateMutability": "view",
			"type": "function"
		},
		{
			"inputs": [],
			"name": "auctionBidStepShare",
			"outputs": [
				{
					"internalType": "uint256",
					"name": "",
					"type": "uint256"
				}
			],
			"stateMutability": "view",
			"type": "function"
		},
		{
			"inputs": [],
			"name": "auctionEndTime",
			"outputs": [
				{
					"internalType": "uint256",
					"name": "",
					"type": "uint256"
				}
			],
			"stateMutability": "view",
			"type": "function"
		},
		{
			"inputs": [],
			"name": "bidAddress",
			"outputs": [
				{
					"internalType": "address",
					"name": "",
					"type": "address"
				}
			],
			"stateMutability": "view",
			"type": "function"
		},
		{
			"inputs": [],
			"name": "bidEther",
			"outputs": [
				{
					"internalType": "uint256",
					"name": "",
					"type": "uint256"
				}
			],
			"stateMutability": "view",
			"type": "function"
		},
		{
			"inputs": [],
			"name": "canvas",
			"outputs": [
				{
					"internalType": "address",
					"name": "",
					"type": "address"
				}
			],
			"stateMutability": "view",
			"type": "function"
		},
		{
			"inputs": [
				{
					"internalType": "uint8",
					"name": "x",
					"type": "uint8"
				},
				{
					"internalType": "uint8",
					"name": "y",
					"type": "uint8"
				}
			],
			"name": "chunkIndex",
			"outputs": [
				{
					"internalType": "uint16",
					"name": "",
					"type": "uint16"
				}
			],
			"stateMutability": "pure",
			"type": "function"
		},
		{
			"inputs": [],
			"name": "chunkOverridePricePercent",
			"outputs": [
				{
					"internalType": "uint256",
					"name": "",
					"type": "uint256"
				}
			],
			"stateMutability": "view",
			"type": "function"
		},
		{
			"inputs": [],
			"name": "chunkWriteAddsGameSeconds",
			"outputs": [
				{
					"internalType": "uint256",
					"name": "",
					"type": "uint256"
				}
			],
			"stateMutability": "view",
			"type": "function"
		},
		{
			"inputs": [],
			"name": "chunksWritenCount",
			"outputs": [
				{
					"internalType": "uint256",
					"name": "",
					"type": "uint256"
				}
			],
			"stateMutability": "view",
			"type": "function"
		},
		{
			"inputs": [],
			"name": "claim",
			"outputs": [],
			"stateMutability": "nonpayable",
			"type": "function"
		},
		{
			"inputs": [],
			"name": "claimNft",
			"outputs": [],
			"stateMutability": "nonpayable",
			"type": "function"
		},
		{
			"inputs": [],
			"name": "etherToClaimTotal",
			"outputs": [
				{
					"internalType": "uint256",
					"name": "",
					"type": "uint256"
				}
			],
			"stateMutability": "view",
			"type": "function"
		},
		{
			"inputs": [],
			"name": "gameEndTime",
			"outputs": [
				{
					"internalType": "uint256",
					"name": "",
					"type": "uint256"
				}
			],
			"stateMutability": "view",
			"type": "function"
		},
		{
			"inputs": [
				{
					"internalType": "uint8",
					"name": "x",
					"type": "uint8"
				},
				{
					"internalType": "uint8",
					"name": "y",
					"type": "uint8"
				}
			],
			"name": "getChunkOwner",
			"outputs": [
				{
					"internalType": "address",
					"name": "",
					"type": "address"
				}
			],
			"stateMutability": "view",
			"type": "function"
		},
		{
			"inputs": [],
			"name": "getChunks",
			"outputs": [
				{
					"components": [
						{
							"internalType": "address",
							"name": "owner",
							"type": "address"
						},
						{
							"internalType": "uint256",
							"name": "price",
							"type": "uint256"
						}
					],
					"internalType": "struct ChunkData[576]",
					"name": "",
					"type": "tuple[576]"
				}
			],
			"stateMutability": "view",
			"type": "function"
		},
		{
			"inputs": [],
			"name": "getChunksCount",
			"outputs": [
				{
					"internalType": "uint16",
					"name": "x",
					"type": "uint16"
				},
				{
					"internalType": "uint16",
					"name": "y",
					"type": "uint16"
				}
			],
			"stateMutability": "pure",
			"type": "function"
		},
		{
			"inputs": [],
			"name": "getChunksOwners",
			"outputs": [
				{
					"internalType": "address[576]",
					"name": "accs",
					"type": "address[576]"
				}
			],
			"stateMutability": "view",
			"type": "function"
		},
		{
			"inputs": [],
			"name": "isAuction",
			"outputs": [
				{
					"internalType": "bool",
					"name": "",
					"type": "bool"
				}
			],
			"stateMutability": "view",
			"type": "function"
		},
		{
			"inputs": [],
			"name": "isAuctionEnd",
			"outputs": [
				{
					"internalType": "bool",
					"name": "",
					"type": "bool"
				}
			],
			"stateMutability": "view",
			"type": "function"
		},
		{
			"inputs": [
				{
					"internalType": "address",
					"name": "",
					"type": "address"
				}
			],
			"name": "isClaimed",
			"outputs": [
				{
					"internalType": "bool",
					"name": "",
					"type": "bool"
				}
			],
			"stateMutability": "view",
			"type": "function"
		},
		{
			"inputs": [],
			"name": "isGameEnd",
			"outputs": [
				{
					"internalType": "bool",
					"name": "",
					"type": "bool"
				}
			],
			"stateMutability": "view",
			"type": "function"
		},
		{
			"inputs": [],
			"name": "isNftClaimed",
			"outputs": [
				{
					"internalType": "bool",
					"name": "",
					"type": "bool"
				}
			],
			"stateMutability": "view",
			"type": "function"
		},
		{
			"inputs": [],
			"name": "isStarted",
			"outputs": [
				{
					"internalType": "bool",
					"name": "",
					"type": "bool"
				}
			],
			"stateMutability": "view",
			"type": "function"
		},
		{
			"inputs": [],
			"name": "isWriteEnable",
			"outputs": [
				{
					"internalType": "bool",
					"name": "",
					"type": "bool"
				}
			],
			"stateMutability": "view",
			"type": "function"
		},
		{
			"inputs": [],
			"name": "makeBid",
			"outputs": [],
			"stateMutability": "payable",
			"type": "function"
		},
		{
			"inputs": [],
			"name": "newBidEtherMin",
			"outputs": [
				{
					"internalType": "uint256",
					"name": "",
					"type": "uint256"
				}
			],
			"stateMutability": "view",
			"type": "function"
		},
		{
			"inputs": [],
			"name": "nft",
			"outputs": [
				{
					"internalType": "contract IMintableNft",
					"name": "",
					"type": "address"
				}
			],
			"stateMutability": "view",
			"type": "function"
		},
		{
			"inputs": [],
			"name": "owner",
			"outputs": [
				{
					"internalType": "address",
					"name": "",
					"type": "address"
				}
			],
			"stateMutability": "view",
			"type": "function"
		},
		{
			"inputs": [],
			"name": "ownerRenounce",
			"outputs": [],
			"stateMutability": "nonpayable",
			"type": "function"
		},
		{
			"inputs": [
				{
					"internalType": "address",
					"name": "nftAddress",
					"type": "address"
				}
			],
			"name": "setNft",
			"outputs": [],
			"stateMutability": "nonpayable",
			"type": "function"
		},
		{
			"inputs": [
				{
					"internalType": "address",
					"name": "tokenAddress",
					"type": "address"
				}
			],
			"name": "setToken",
			"outputs": [],
			"stateMutability": "nonpayable",
			"type": "function"
		},
		{
			"inputs": [],
			"name": "start",
			"outputs": [],
			"stateMutability": "nonpayable",
			"type": "function"
		},
		{
			"inputs": [],
			"name": "startChunkWritePrice",
			"outputs": [
				{
					"internalType": "uint256",
					"name": "",
					"type": "uint256"
				}
			],
			"stateMutability": "view",
			"type": "function"
		},
		{
			"inputs": [],
			"name": "token",
			"outputs": [
				{
					"internalType": "contract IERC20",
					"name": "",
					"type": "address"
				}
			],
			"stateMutability": "view",
			"type": "function"
		},
		{
			"inputs": [],
			"name": "tokenToClaimTotal",
			"outputs": [
				{
					"internalType": "uint256",
					"name": "",
					"type": "uint256"
				}
			],
			"stateMutability": "view",
			"type": "function"
		},
		{
			"inputs": [
				{
					"internalType": "address",
					"name": "newOwner",
					"type": "address"
				}
			],
			"name": "transferOwnership",
			"outputs": [],
			"stateMutability": "nonpayable",
			"type": "function"
		},
		{
			"inputs": [
				{
					"components": [
						{
							"internalType": "uint8",
							"name": "x",
							"type": "uint8"
						},
						{
							"internalType": "uint8",
							"name": "y",
							"type": "uint8"
						},
						{
							"internalType": "uint256",
							"name": "data",
							"type": "uint256"
						}
					],
					"internalType": "struct ChunkWriteDto[]",
					"name": "input",
					"type": "tuple[]"
				}
			],
			"name": "writeChunks",
			"outputs": [],
			"stateMutability": "nonpayable",
			"type": "function"
		},
		{
			"inputs": [
				{
					"components": [
						{
							"internalType": "uint8",
							"name": "x",
							"type": "uint8"
						},
						{
							"internalType": "uint8",
							"name": "y",
							"type": "uint8"
						},
						{
							"internalType": "uint256",
							"name": "data",
							"type": "uint256"
						}
					],
					"internalType": "struct ChunkWriteDto[]",
					"name": "input",
					"type": "tuple[]"
				}
			],
			"name": "writeChunksPrice",
			"outputs": [
				{
					"internalType": "uint256",
					"name": "",
					"type": "uint256"
				}
			],
			"stateMutability": "view",
			"type": "function"
		},
		{
			"inputs": [
				{
					"components": [
						{
							"internalType": "uint8",
							"name": "x",
							"type": "uint8"
						},
						{
							"internalType": "uint8",
							"name": "y",
							"type": "uint8"
						},
						{
							"internalType": "uint256",
							"name": "data",
							"type": "uint256"
						}
					],
					"internalType": "struct ChunkWriteDto[]",
					"name": "input",
					"type": "tuple[]"
				},
				{
					"internalType": "address",
					"name": "account",
					"type": "address"
				}
			],
			"name": "writeChunksPriceFor",
			"outputs": [
				{
					"internalType": "uint256",
					"name": "",
					"type": "uint256"
				}
			],
			"stateMutability": "view",
			"type": "function"
		},
		{
			"stateMutability": "payable",
			"type": "receive"
		}
	]
}